{
	"Lesson 4/FundMe.sol": {
		"FundMe": {
			"abi": [
				{
					"inputs": [],
					"stateMutability": "nonpayable",
					"type": "constructor"
				},
				{
					"inputs": [],
					"name": "NotOwner",
					"type": "error"
				},
				{
					"inputs": [],
					"name": "MINIMUM_USD",
					"outputs": [
						{
							"internalType": "uint256",
							"name": "",
							"type": "uint256"
						}
					],
					"stateMutability": "view",
					"type": "function"
				},
				{
					"inputs": [
						{
							"internalType": "address",
							"name": "",
							"type": "address"
						}
					],
					"name": "addressToAmountFunded",
					"outputs": [
						{
							"internalType": "uint256",
							"name": "",
							"type": "uint256"
						}
					],
					"stateMutability": "view",
					"type": "function"
				},
				{
					"inputs": [],
					"name": "fund",
					"outputs": [],
					"stateMutability": "payable",
					"type": "function"
				},
				{
					"inputs": [
						{
							"internalType": "uint256",
							"name": "",
							"type": "uint256"
						}
					],
					"name": "funders",
					"outputs": [
						{
							"internalType": "address",
							"name": "",
							"type": "address"
						}
					],
					"stateMutability": "view",
					"type": "function"
				},
				{
					"inputs": [],
					"name": "getVersion",
					"outputs": [
						{
							"internalType": "uint256",
							"name": "",
							"type": "uint256"
						}
					],
					"stateMutability": "view",
					"type": "function"
				},
				{
					"inputs": [],
					"name": "i_owner",
					"outputs": [
						{
							"internalType": "address",
							"name": "",
							"type": "address"
						}
					],
					"stateMutability": "view",
					"type": "function"
				},
				{
					"inputs": [],
					"name": "withdraw",
					"outputs": [],
					"stateMutability": "payable",
					"type": "function"
				}
			],
			"devdoc": {
				"kind": "dev",
				"methods": {},
				"version": 1
			},
			"evm": {
				"assembly": "    /* \"Lesson 4/FundMe.sol\":214:1506  contract FundMe {... */\n  mstore(0x40, 0x80)\n    /* \"Lesson 4/FundMe.sol\":458:509  constructor() {... */\n  callvalue\n  dup1\n  iszero\n  tag_1\n  jumpi\n  0x00\n  dup1\n  revert\ntag_1:\n  pop\n    /* \"Lesson 4/FundMe.sol\":492:502  msg.sender */\n  caller\n    /* \"Lesson 4/FundMe.sol\":482:489  i_owner */\n  0x02\n  0x00\n    /* \"Lesson 4/FundMe.sol\":482:502  i_owner = msg.sender */\n  0x0100\n  exp\n  dup2\n  sload\n  dup2\n  0xffffffffffffffffffffffffffffffffffffffff\n  mul\n  not\n  and\n  swap1\n  dup4\n  0xffffffffffffffffffffffffffffffffffffffff\n  and\n  mul\n  or\n  swap1\n  sstore\n  pop\n    /* \"Lesson 4/FundMe.sol\":214:1506  contract FundMe {... */\n  dataSize(sub_0)\n  dup1\n  dataOffset(sub_0)\n  0x00\n  codecopy\n  0x00\n  return\nstop\n\nsub_0: assembly {\n        /* \"Lesson 4/FundMe.sol\":214:1506  contract FundMe {... */\n      mstore(0x40, 0x80)\n      jumpi(tag_1, lt(calldatasize, 0x04))\n      shr(0xe0, calldataload(0x00))\n      dup1\n      0x6b69a592\n      gt\n      tag_9\n      jumpi\n      dup1\n      0x6b69a592\n      eq\n      tag_5\n      jumpi\n      dup1\n      0xb60d4288\n      eq\n      tag_6\n      jumpi\n      dup1\n      0xdba6335f\n      eq\n      tag_7\n      jumpi\n      dup1\n      0xdc0d3dff\n      eq\n      tag_8\n      jumpi\n      jump(tag_1)\n    tag_9:\n      dup1\n      0x0d8e6e2c\n      eq\n      tag_2\n      jumpi\n      dup1\n      0x3ccfd60b\n      eq\n      tag_3\n      jumpi\n      dup1\n      0x3e47d6f3\n      eq\n      tag_4\n      jumpi\n    tag_1:\n      0x00\n      dup1\n      revert\n        /* \"Lesson 4/FundMe.sol\":742:945  function getVersion() public view returns (uint256){... */\n    tag_2:\n      callvalue\n      dup1\n      iszero\n      tag_10\n      jumpi\n      0x00\n      dup1\n      revert\n    tag_10:\n      pop\n      tag_11\n      tag_12\n      jump\t// in\n    tag_11:\n      mload(0x40)\n      tag_13\n      swap2\n      swap1\n      tag_14\n      jump\t// in\n    tag_13:\n      mload(0x40)\n      dup1\n      swap2\n      sub\n      swap1\n      return\n        /* \"Lesson 4/FundMe.sol\":1089:1503  function withdraw() payable onlyOwner public {... */\n    tag_3:\n      tag_15\n      tag_16\n      jump\t// in\n    tag_15:\n      stop\n        /* \"Lesson 4/FundMe.sol\":274:330  mapping(address => uint256) public addressToAmountFunded */\n    tag_4:\n      callvalue\n      dup1\n      iszero\n      tag_17\n      jumpi\n      0x00\n      dup1\n      revert\n    tag_17:\n      pop\n      tag_18\n      0x04\n      dup1\n      calldatasize\n      sub\n      dup2\n      add\n      swap1\n      tag_19\n      swap2\n      swap1\n      tag_20\n      jump\t// in\n    tag_19:\n      tag_21\n      jump\t// in\n    tag_18:\n      mload(0x40)\n      tag_22\n      swap2\n      swap1\n      tag_14\n      jump\t// in\n    tag_22:\n      mload(0x40)\n      dup1\n      swap2\n      sub\n      swap1\n      return\n        /* \"Lesson 4/FundMe.sol\":411:451  uint256 public constant MINIMUM_USD = 50 */\n    tag_5:\n      callvalue\n      dup1\n      iszero\n      tag_23\n      jumpi\n      0x00\n      dup1\n      revert\n    tag_23:\n      pop\n      tag_24\n      tag_25\n      jump\t// in\n    tag_24:\n      mload(0x40)\n      tag_26\n      swap2\n      swap1\n      tag_14\n      jump\t// in\n    tag_26:\n      mload(0x40)\n      dup1\n      swap2\n      sub\n      swap1\n      return\n        /* \"Lesson 4/FundMe.sol\":515:736  function fund() public payable{... */\n    tag_6:\n      tag_27\n      tag_28\n      jump\t// in\n    tag_27:\n      stop\n        /* \"Lesson 4/FundMe.sol\":367:405  address public /* immutable */ i_owner */\n    tag_7:\n      callvalue\n      dup1\n      iszero\n      tag_29\n      jumpi\n      0x00\n      dup1\n      revert\n    tag_29:\n      pop\n      tag_30\n      tag_31\n      jump\t// in\n    tag_30:\n      mload(0x40)\n      tag_32\n      swap2\n      swap1\n      tag_33\n      jump\t// in\n    tag_32:\n      mload(0x40)\n      dup1\n      swap2\n      sub\n      swap1\n      return\n        /* \"Lesson 4/FundMe.sol\":336:360  address[] public funders */\n    tag_8:\n      callvalue\n      dup1\n      iszero\n      tag_34\n      jumpi\n      0x00\n      dup1\n      revert\n    tag_34:\n      pop\n      tag_35\n      0x04\n      dup1\n      calldatasize\n      sub\n      dup2\n      add\n      swap1\n      tag_36\n      swap2\n      swap1\n      tag_37\n      jump\t// in\n    tag_36:\n      tag_38\n      jump\t// in\n    tag_35:\n      mload(0x40)\n      tag_39\n      swap2\n      swap1\n      tag_33\n      jump\t// in\n    tag_39:\n      mload(0x40)\n      dup1\n      swap2\n      sub\n      swap1\n      return\n        /* \"Lesson 4/FundMe.sol\":742:945  function getVersion() public view returns (uint256){... */\n    tag_12:\n        /* \"Lesson 4/FundMe.sol\":785:792  uint256 */\n      0x00\n        /* \"Lesson 4/FundMe.sol\":803:834  AggregatorV3Interface priceFeed */\n      dup1\n        /* \"Lesson 4/FundMe.sol\":859:901  0x8A753747A1Fa494EC906cE90E9f37563A8AF630e */\n      0x8a753747a1fa494ec906ce90e9f37563a8af630e\n        /* \"Lesson 4/FundMe.sol\":803:902  AggregatorV3Interface priceFeed = AggregatorV3Interface(0x8A753747A1Fa494EC906cE90E9f37563A8AF630e) */\n      swap1\n      pop\n        /* \"Lesson 4/FundMe.sol\":919:928  priceFeed */\n      dup1\n        /* \"Lesson 4/FundMe.sol\":919:936  priceFeed.version */\n      0xffffffffffffffffffffffffffffffffffffffff\n      and\n      0x54fd4d50\n        /* \"Lesson 4/FundMe.sol\":919:938  priceFeed.version() */\n      mload(0x40)\n      dup2\n      0xffffffff\n      and\n      0xe0\n      shl\n      dup2\n      mstore\n      0x04\n      add\n      0x20\n      mload(0x40)\n      dup1\n      dup4\n      sub\n      dup2\n      dup7\n      gas\n      staticcall\n      iszero\n      dup1\n      iszero\n      tag_42\n      jumpi\n      returndatasize\n      0x00\n      dup1\n      returndatacopy\n      revert(0x00, returndatasize)\n    tag_42:\n      pop\n      pop\n      pop\n      pop\n      mload(0x40)\n      returndatasize\n      not(0x1f)\n      0x1f\n      dup3\n      add\n      and\n      dup3\n      add\n      dup1\n      0x40\n      mstore\n      pop\n      dup2\n      add\n      swap1\n      tag_43\n      swap2\n      swap1\n      tag_44\n      jump\t// in\n    tag_43:\n        /* \"Lesson 4/FundMe.sol\":912:938  return priceFeed.version() */\n      swap2\n      pop\n      pop\n        /* \"Lesson 4/FundMe.sol\":742:945  function getVersion() public view returns (uint256){... */\n      swap1\n      jump\t// out\n        /* \"Lesson 4/FundMe.sol\":1089:1503  function withdraw() payable onlyOwner public {... */\n    tag_16:\n        /* \"Lesson 4/FundMe.sol\":1039:1046  i_owner */\n      0x02\n      0x00\n      swap1\n      sload\n      swap1\n      0x0100\n      exp\n      swap1\n      div\n      0xffffffffffffffffffffffffffffffffffffffff\n      and\n        /* \"Lesson 4/FundMe.sol\":1025:1046  msg.sender != i_owner */\n      0xffffffffffffffffffffffffffffffffffffffff\n      and\n        /* \"Lesson 4/FundMe.sol\":1025:1035  msg.sender */\n      caller\n        /* \"Lesson 4/FundMe.sol\":1025:1046  msg.sender != i_owner */\n      0xffffffffffffffffffffffffffffffffffffffff\n      and\n      eq\n        /* \"Lesson 4/FundMe.sol\":1021:1065  if (msg.sender != i_owner) revert NotOwner() */\n      tag_46\n      jumpi\n        /* \"Lesson 4/FundMe.sol\":1055:1065  NotOwner() */\n      mload(0x40)\n      0x30cd747100000000000000000000000000000000000000000000000000000000\n      dup2\n      mstore\n      0x04\n      add\n      mload(0x40)\n      dup1\n      swap2\n      sub\n      swap1\n      revert\n        /* \"Lesson 4/FundMe.sol\":1021:1065  if (msg.sender != i_owner) revert NotOwner() */\n    tag_46:\n        /* \"Lesson 4/FundMe.sol\":1149:1168  uint256 funderIndex */\n      0x00\n        /* \"Lesson 4/FundMe.sol\":1144:1325  for (uint256 funderIndex=0; funderIndex < funders.length; funderIndex++){... */\n    tag_48:\n        /* \"Lesson 4/FundMe.sol\":1186:1193  funders */\n      0x01\n        /* \"Lesson 4/FundMe.sol\":1186:1200  funders.length */\n      dup1\n      sload\n      swap1\n      pop\n        /* \"Lesson 4/FundMe.sol\":1172:1183  funderIndex */\n      dup2\n        /* \"Lesson 4/FundMe.sol\":1172:1200  funderIndex < funders.length */\n      lt\n        /* \"Lesson 4/FundMe.sol\":1144:1325  for (uint256 funderIndex=0; funderIndex < funders.length; funderIndex++){... */\n      iszero\n      tag_49\n      jumpi\n        /* \"Lesson 4/FundMe.sol\":1230:1244  address funder */\n      0x00\n        /* \"Lesson 4/FundMe.sol\":1247:1254  funders */\n      0x01\n        /* \"Lesson 4/FundMe.sol\":1255:1266  funderIndex */\n      dup3\n        /* \"Lesson 4/FundMe.sol\":1247:1267  funders[funderIndex] */\n      dup2\n      sload\n      dup2\n      lt\n      tag_51\n      jumpi\n      tag_52\n      tag_53\n      jump\t// in\n    tag_52:\n    tag_51:\n      swap1\n      0x00\n      mstore\n      keccak256(0x00, 0x20)\n      add\n      0x00\n      swap1\n      sload\n      swap1\n      0x0100\n      exp\n      swap1\n      div\n      0xffffffffffffffffffffffffffffffffffffffff\n      and\n        /* \"Lesson 4/FundMe.sol\":1230:1267  address funder = funders[funderIndex] */\n      swap1\n      pop\n        /* \"Lesson 4/FundMe.sol\":1313:1314  0 */\n      0x00\n        /* \"Lesson 4/FundMe.sol\":1281:1302  addressToAmountFunded */\n      dup1\n        /* \"Lesson 4/FundMe.sol\":1281:1310  addressToAmountFunded[funder] */\n      0x00\n        /* \"Lesson 4/FundMe.sol\":1303:1309  funder */\n      dup4\n        /* \"Lesson 4/FundMe.sol\":1281:1310  addressToAmountFunded[funder] */\n      0xffffffffffffffffffffffffffffffffffffffff\n      and\n      0xffffffffffffffffffffffffffffffffffffffff\n      and\n      dup2\n      mstore\n      0x20\n      add\n      swap1\n      dup2\n      mstore\n      0x20\n      add\n      0x00\n      keccak256\n        /* \"Lesson 4/FundMe.sol\":1281:1314  addressToAmountFunded[funder] = 0 */\n      dup2\n      swap1\n      sstore\n      pop\n        /* \"Lesson 4/FundMe.sol\":1216:1325  {... */\n      pop\n        /* \"Lesson 4/FundMe.sol\":1202:1215  funderIndex++ */\n      dup1\n      dup1\n      tag_55\n      swap1\n      tag_56\n      jump\t// in\n    tag_55:\n      swap2\n      pop\n      pop\n        /* \"Lesson 4/FundMe.sol\":1144:1325  for (uint256 funderIndex=0; funderIndex < funders.length; funderIndex++){... */\n      jump(tag_48)\n    tag_49:\n      pop\n        /* \"Lesson 4/FundMe.sol\":1358:1359  0 */\n      0x00\n        /* \"Lesson 4/FundMe.sol\":1344:1360  new address[](0) */\n      0xffffffffffffffff\n      dup2\n      gt\n      iszero\n      tag_57\n      jumpi\n      tag_58\n      tag_59\n      jump\t// in\n    tag_58:\n    tag_57:\n      mload(0x40)\n      swap1\n      dup1\n      dup3\n      mstore\n      dup1\n      0x20\n      mul\n      0x20\n      add\n      dup3\n      add\n      0x40\n      mstore\n      dup1\n      iszero\n      tag_60\n      jumpi\n      dup2\n      0x20\n      add\n      0x20\n      dup3\n      mul\n      dup1\n      calldatasize\n      dup4\n      calldatacopy\n      dup1\n      dup3\n      add\n      swap2\n      pop\n      pop\n      swap1\n      pop\n    tag_60:\n      pop\n        /* \"Lesson 4/FundMe.sol\":1334:1341  funders */\n      0x01\n        /* \"Lesson 4/FundMe.sol\":1334:1360  funders = new address[](0) */\n      swap1\n      dup1\n      mload\n      swap1\n      0x20\n      add\n      swap1\n      tag_61\n      swap3\n      swap2\n      swap1\n      tag_62\n      jump\t// in\n    tag_61:\n      pop\n        /* \"Lesson 4/FundMe.sol\":1371:1387  bool callSuccess */\n      0x00\n        /* \"Lesson 4/FundMe.sol\":1401:1411  msg.sender */\n      caller\n        /* \"Lesson 4/FundMe.sol\":1393:1417  payable(msg.sender).call */\n      0xffffffffffffffffffffffffffffffffffffffff\n      and\n        /* \"Lesson 4/FundMe.sol\":1425:1446  address(this).balance */\n      selfbalance\n        /* \"Lesson 4/FundMe.sol\":1393:1451  payable(msg.sender).call{value: address(this).balance}(\"\") */\n      mload(0x40)\n      tag_63\n      swap1\n      tag_64\n      jump\t// in\n    tag_63:\n      0x00\n      mload(0x40)\n      dup1\n      dup4\n      sub\n      dup2\n      dup6\n      dup8\n      gas\n      call\n      swap3\n      pop\n      pop\n      pop\n      returndatasize\n      dup1\n      0x00\n      dup2\n      eq\n      tag_67\n      jumpi\n      mload(0x40)\n      swap2\n      pop\n      and(add(returndatasize, 0x3f), not(0x1f))\n      dup3\n      add\n      0x40\n      mstore\n      returndatasize\n      dup3\n      mstore\n      returndatasize\n      0x00\n      0x20\n      dup5\n      add\n      returndatacopy\n      jump(tag_66)\n    tag_67:\n      0x60\n      swap2\n      pop\n    tag_66:\n      pop\n        /* \"Lesson 4/FundMe.sol\":1370:1451  (bool callSuccess, ) = payable(msg.sender).call{value: address(this).balance}(\"\") */\n      pop\n      swap1\n      pop\n        /* \"Lesson 4/FundMe.sol\":1469:1480  callSuccess */\n      dup1\n        /* \"Lesson 4/FundMe.sol\":1461:1496  require(callSuccess, \"Call failed\") */\n      tag_68\n      jumpi\n      mload(0x40)\n      0x08c379a000000000000000000000000000000000000000000000000000000000\n      dup2\n      mstore\n      0x04\n      add\n      tag_69\n      swap1\n      tag_70\n      jump\t// in\n    tag_69:\n      mload(0x40)\n      dup1\n      swap2\n      sub\n      swap1\n      revert\n    tag_68:\n        /* \"Lesson 4/FundMe.sol\":1134:1503  {... */\n      pop\n        /* \"Lesson 4/FundMe.sol\":1089:1503  function withdraw() payable onlyOwner public {... */\n      jump\t// out\n        /* \"Lesson 4/FundMe.sol\":274:330  mapping(address => uint256) public addressToAmountFunded */\n    tag_21:\n      mstore(0x20, 0x00)\n      dup1\n      0x00\n      mstore\n      keccak256(0x00, 0x40)\n      0x00\n      swap2\n      pop\n      swap1\n      pop\n      sload\n      dup2\n      jump\t// out\n        /* \"Lesson 4/FundMe.sol\":411:451  uint256 public constant MINIMUM_USD = 50 */\n    tag_25:\n        /* \"Lesson 4/FundMe.sol\":449:451  50 */\n      0x32\n        /* \"Lesson 4/FundMe.sol\":411:451  uint256 public constant MINIMUM_USD = 50 */\n      dup2\n      jump\t// out\n        /* \"Lesson 4/FundMe.sol\":515:736  function fund() public payable{... */\n    tag_28:\n        /* \"Lesson 4/FundMe.sol\":449:451  50 */\n      0x32\n        /* \"Lesson 4/FundMe.sol\":563:592  msg.value.getConversionRate() */\n      tag_72\n        /* \"Lesson 4/FundMe.sol\":563:572  msg.value */\n      callvalue\n        /* \"Lesson 4/FundMe.sol\":563:590  msg.value.getConversionRate */\n      tag_73\n        /* \"Lesson 4/FundMe.sol\":563:592  msg.value.getConversionRate() */\n      jump\t// in\n    tag_72:\n        /* \"Lesson 4/FundMe.sol\":563:607  msg.value.getConversionRate() >= MINIMUM_USD */\n      lt\n      iszero\n        /* \"Lesson 4/FundMe.sol\":555:639  require(msg.value.getConversionRate() >= MINIMUM_USD, \"You need to spend more ETH!\") */\n      tag_74\n      jumpi\n      mload(0x40)\n      0x08c379a000000000000000000000000000000000000000000000000000000000\n      dup2\n      mstore\n      0x04\n      add\n      tag_75\n      swap1\n      tag_76\n      jump\t// in\n    tag_75:\n      mload(0x40)\n      dup1\n      swap2\n      sub\n      swap1\n      revert\n    tag_74:\n        /* \"Lesson 4/FundMe.sol\":686:695  msg.value */\n      callvalue\n        /* \"Lesson 4/FundMe.sol\":649:670  addressToAmountFunded */\n      0x00\n        /* \"Lesson 4/FundMe.sol\":649:682  addressToAmountFunded[msg.sender] */\n      dup1\n        /* \"Lesson 4/FundMe.sol\":671:681  msg.sender */\n      caller\n        /* \"Lesson 4/FundMe.sol\":649:682  addressToAmountFunded[msg.sender] */\n      0xffffffffffffffffffffffffffffffffffffffff\n      and\n      0xffffffffffffffffffffffffffffffffffffffff\n      and\n      dup2\n      mstore\n      0x20\n      add\n      swap1\n      dup2\n      mstore\n      0x20\n      add\n      0x00\n      keccak256\n      0x00\n        /* \"Lesson 4/FundMe.sol\":649:695  addressToAmountFunded[msg.sender] += msg.value */\n      dup3\n      dup3\n      sload\n      tag_77\n      swap2\n      swap1\n      tag_78\n      jump\t// in\n    tag_77:\n      swap3\n      pop\n      pop\n      dup2\n      swap1\n      sstore\n      pop\n        /* \"Lesson 4/FundMe.sol\":705:712  funders */\n      0x01\n        /* \"Lesson 4/FundMe.sol\":718:728  msg.sender */\n      caller\n        /* \"Lesson 4/FundMe.sol\":705:729  funders.push(msg.sender) */\n      swap1\n      dup1\n      0x01\n      dup2\n      sload\n      add\n      dup1\n      dup3\n      sstore\n      dup1\n      swap2\n      pop\n      pop\n      0x01\n      swap1\n      sub\n      swap1\n      0x00\n      mstore\n      keccak256(0x00, 0x20)\n      add\n      0x00\n      swap1\n      swap2\n      swap1\n      swap2\n      swap1\n      swap2\n      0x0100\n      exp\n      dup2\n      sload\n      dup2\n      0xffffffffffffffffffffffffffffffffffffffff\n      mul\n      not\n      and\n      swap1\n      dup4\n      0xffffffffffffffffffffffffffffffffffffffff\n      and\n      mul\n      or\n      swap1\n      sstore\n      pop\n        /* \"Lesson 4/FundMe.sol\":515:736  function fund() public payable{... */\n      jump\t// out\n        /* \"Lesson 4/FundMe.sol\":367:405  address public /* immutable */ i_owner */\n    tag_31:\n      0x02\n      0x00\n      swap1\n      sload\n      swap1\n      0x0100\n      exp\n      swap1\n      div\n      0xffffffffffffffffffffffffffffffffffffffff\n      and\n      dup2\n      jump\t// out\n        /* \"Lesson 4/FundMe.sol\":336:360  address[] public funders */\n    tag_38:\n      0x01\n      dup2\n      dup2\n      sload\n      dup2\n      lt\n      tag_80\n      jumpi\n      0x00\n      dup1\n      revert\n    tag_80:\n      swap1\n      0x00\n      mstore\n      keccak256(0x00, 0x20)\n      add\n      0x00\n      swap2\n      pop\n      sload\n      swap1\n      0x0100\n      exp\n      swap1\n      div\n      0xffffffffffffffffffffffffffffffffffffffff\n      and\n      dup2\n      jump\t// out\n        /* \"Lesson 4/PriceConverter.sol\":686:1025  function getConversionRate(uint256 ethAmount)... */\n    tag_73:\n        /* \"Lesson 4/PriceConverter.sol\":779:786  uint256 */\n      0x00\n        /* \"Lesson 4/PriceConverter.sol\":802:818  uint256 ethPrice */\n      dup1\n        /* \"Lesson 4/PriceConverter.sol\":821:831  getPrice() */\n      tag_83\n        /* \"Lesson 4/PriceConverter.sol\":821:829  getPrice */\n      tag_84\n        /* \"Lesson 4/PriceConverter.sol\":821:831  getPrice() */\n      jump\t// in\n    tag_83:\n        /* \"Lesson 4/PriceConverter.sol\":802:831  uint256 ethPrice = getPrice() */\n      swap1\n      pop\n        /* \"Lesson 4/PriceConverter.sol\":841:863  uint256 ethAmountInUsd */\n      0x00\n        /* \"Lesson 4/PriceConverter.sol\":891:910  1000000000000000000 */\n      0x0de0b6b3a7640000\n        /* \"Lesson 4/PriceConverter.sol\":878:887  ethAmount */\n      dup5\n        /* \"Lesson 4/PriceConverter.sol\":867:875  ethPrice */\n      dup4\n        /* \"Lesson 4/PriceConverter.sol\":867:887  ethPrice * ethAmount */\n      tag_85\n      swap2\n      swap1\n      tag_86\n      jump\t// in\n    tag_85:\n        /* \"Lesson 4/PriceConverter.sol\":866:910  (ethPrice * ethAmount) / 1000000000000000000 */\n      tag_87\n      swap2\n      swap1\n      tag_88\n      jump\t// in\n    tag_87:\n        /* \"Lesson 4/PriceConverter.sol\":841:910  uint256 ethAmountInUsd = (ethPrice * ethAmount) / 1000000000000000000 */\n      swap1\n      pop\n        /* \"Lesson 4/PriceConverter.sol\":1004:1018  ethAmountInUsd */\n      dup1\n        /* \"Lesson 4/PriceConverter.sol\":997:1018  return ethAmountInUsd */\n      swap3\n      pop\n      pop\n      pop\n        /* \"Lesson 4/PriceConverter.sol\":686:1025  function getConversionRate(uint256 ethAmount)... */\n      swap2\n      swap1\n      pop\n      jump\t// out\n        /* \"Lesson 4/PriceConverter.sol\":230:662  function getPrice() internal view returns (uint256) {... */\n    tag_84:\n        /* \"Lesson 4/PriceConverter.sol\":273:280  uint256 */\n      0x00\n        /* \"Lesson 4/PriceConverter.sol\":389:420  AggregatorV3Interface priceFeed */\n      dup1\n        /* \"Lesson 4/PriceConverter.sol\":458:500  0x8A753747A1Fa494EC906cE90E9f37563A8AF630e */\n      0x8a753747a1fa494ec906ce90e9f37563a8af630e\n        /* \"Lesson 4/PriceConverter.sol\":389:510  AggregatorV3Interface priceFeed = AggregatorV3Interface(... */\n      swap1\n      pop\n        /* \"Lesson 4/PriceConverter.sol\":523:536  int256 answer */\n      0x00\n        /* \"Lesson 4/PriceConverter.sol\":546:555  priceFeed */\n      dup2\n        /* \"Lesson 4/PriceConverter.sol\":546:571  priceFeed.latestRoundData */\n      0xffffffffffffffffffffffffffffffffffffffff\n      and\n      0xfeaf968c\n        /* \"Lesson 4/PriceConverter.sol\":546:573  priceFeed.latestRoundData() */\n      mload(0x40)\n      dup2\n      0xffffffff\n      and\n      0xe0\n      shl\n      dup2\n      mstore\n      0x04\n      add\n      0xa0\n      mload(0x40)\n      dup1\n      dup4\n      sub\n      dup2\n      dup7\n      gas\n      staticcall\n      iszero\n      dup1\n      iszero\n      tag_91\n      jumpi\n      returndatasize\n      0x00\n      dup1\n      returndatacopy\n      revert(0x00, returndatasize)\n    tag_91:\n      pop\n      pop\n      pop\n      pop\n      mload(0x40)\n      returndatasize\n      not(0x1f)\n      0x1f\n      dup3\n      add\n      and\n      dup3\n      add\n      dup1\n      0x40\n      mstore\n      pop\n      dup2\n      add\n      swap1\n      tag_92\n      swap2\n      swap1\n      tag_93\n      jump\t// in\n    tag_92:\n        /* \"Lesson 4/PriceConverter.sol\":520:573  (, int256 answer, , , ) = priceFeed.latestRoundData() */\n      pop\n      pop\n      pop\n      swap2\n      pop\n      pop\n        /* \"Lesson 4/PriceConverter.sol\":643:654  10000000000 */\n      0x02540be400\n        /* \"Lesson 4/PriceConverter.sol\":634:640  answer */\n      dup2\n        /* \"Lesson 4/PriceConverter.sol\":634:654  answer * 10000000000 */\n      tag_94\n      swap2\n      swap1\n      tag_95\n      jump\t// in\n    tag_94:\n        /* \"Lesson 4/PriceConverter.sol\":619:655  return uint256(answer * 10000000000) */\n      swap3\n      pop\n      pop\n      pop\n        /* \"Lesson 4/PriceConverter.sol\":230:662  function getPrice() internal view returns (uint256) {... */\n      swap1\n      jump\t// out\n    tag_62:\n      dup3\n      dup1\n      sload\n      dup3\n      dup3\n      sstore\n      swap1\n      0x00\n      mstore\n      keccak256(0x00, 0x20)\n      swap1\n      dup2\n      add\n      swap3\n      dup3\n      iszero\n      tag_96\n      jumpi\n      swap2\n      0x20\n      mul\n      dup3\n      add\n    tag_97:\n      dup3\n      dup2\n      gt\n      iszero\n      tag_98\n      jumpi\n      dup3\n      mload\n      dup3\n      exp(0x0100, 0x00)\n      dup2\n      sload\n      dup2\n      0xffffffffffffffffffffffffffffffffffffffff\n      mul\n      not\n      and\n      swap1\n      dup4\n      0xffffffffffffffffffffffffffffffffffffffff\n      and\n      mul\n      or\n      swap1\n      sstore\n      pop\n      swap2\n      0x20\n      add\n      swap2\n      swap1\n      0x01\n      add\n      swap1\n      jump(tag_97)\n    tag_98:\n    tag_96:\n      pop\n      swap1\n      pop\n      tag_99\n      swap2\n      swap1\n      tag_100\n      jump\t// in\n    tag_99:\n      pop\n      swap1\n      jump\t// out\n    tag_100:\n    tag_101:\n      dup1\n      dup3\n      gt\n      iszero\n      tag_102\n      jumpi\n      0x00\n      dup2\n      0x00\n      swap1\n      sstore\n      pop\n      0x01\n      add\n      jump(tag_101)\n    tag_102:\n      pop\n      swap1\n      jump\t// out\n        /* \"#utility.yul\":7:84   */\n    tag_103:\n        /* \"#utility.yul\":44:51   */\n      0x00\n        /* \"#utility.yul\":73:78   */\n      dup2\n        /* \"#utility.yul\":62:78   */\n      swap1\n      pop\n        /* \"#utility.yul\":7:84   */\n      swap2\n      swap1\n      pop\n      jump\t// out\n        /* \"#utility.yul\":90:208   */\n    tag_104:\n        /* \"#utility.yul\":177:201   */\n      tag_135\n        /* \"#utility.yul\":195:200   */\n      dup2\n        /* \"#utility.yul\":177:201   */\n      tag_103\n      jump\t// in\n    tag_135:\n        /* \"#utility.yul\":172:175   */\n      dup3\n        /* \"#utility.yul\":165:202   */\n      mstore\n        /* \"#utility.yul\":90:208   */\n      pop\n      pop\n      jump\t// out\n        /* \"#utility.yul\":214:436   */\n    tag_14:\n        /* \"#utility.yul\":307:311   */\n      0x00\n        /* \"#utility.yul\":345:347   */\n      0x20\n        /* \"#utility.yul\":334:343   */\n      dup3\n        /* \"#utility.yul\":330:348   */\n      add\n        /* \"#utility.yul\":322:348   */\n      swap1\n      pop\n        /* \"#utility.yul\":358:429   */\n      tag_137\n        /* \"#utility.yul\":426:427   */\n      0x00\n        /* \"#utility.yul\":415:424   */\n      dup4\n        /* \"#utility.yul\":411:428   */\n      add\n        /* \"#utility.yul\":402:408   */\n      dup5\n        /* \"#utility.yul\":358:429   */\n      tag_104\n      jump\t// in\n    tag_137:\n        /* \"#utility.yul\":214:436   */\n      swap3\n      swap2\n      pop\n      pop\n      jump\t// out\n        /* \"#utility.yul\":523:640   */\n    tag_106:\n        /* \"#utility.yul\":632:633   */\n      0x00\n        /* \"#utility.yul\":629:630   */\n      dup1\n        /* \"#utility.yul\":622:634   */\n      revert\n        /* \"#utility.yul\":769:895   */\n    tag_108:\n        /* \"#utility.yul\":806:813   */\n      0x00\n        /* \"#utility.yul\":846:888   */\n      0xffffffffffffffffffffffffffffffffffffffff\n        /* \"#utility.yul\":839:844   */\n      dup3\n        /* \"#utility.yul\":835:889   */\n      and\n        /* \"#utility.yul\":824:889   */\n      swap1\n      pop\n        /* \"#utility.yul\":769:895   */\n      swap2\n      swap1\n      pop\n      jump\t// out\n        /* \"#utility.yul\":901:997   */\n    tag_109:\n        /* \"#utility.yul\":938:945   */\n      0x00\n        /* \"#utility.yul\":967:991   */\n      tag_143\n        /* \"#utility.yul\":985:990   */\n      dup3\n        /* \"#utility.yul\":967:991   */\n      tag_108\n      jump\t// in\n    tag_143:\n        /* \"#utility.yul\":956:991   */\n      swap1\n      pop\n        /* \"#utility.yul\":901:997   */\n      swap2\n      swap1\n      pop\n      jump\t// out\n        /* \"#utility.yul\":1003:1125   */\n    tag_110:\n        /* \"#utility.yul\":1076:1100   */\n      tag_145\n        /* \"#utility.yul\":1094:1099   */\n      dup2\n        /* \"#utility.yul\":1076:1100   */\n      tag_109\n      jump\t// in\n    tag_145:\n        /* \"#utility.yul\":1069:1074   */\n      dup2\n        /* \"#utility.yul\":1066:1101   */\n      eq\n        /* \"#utility.yul\":1056:1119   */\n      tag_146\n      jumpi\n        /* \"#utility.yul\":1115:1116   */\n      0x00\n        /* \"#utility.yul\":1112:1113   */\n      dup1\n        /* \"#utility.yul\":1105:1117   */\n      revert\n        /* \"#utility.yul\":1056:1119   */\n    tag_146:\n        /* \"#utility.yul\":1003:1125   */\n      pop\n      jump\t// out\n        /* \"#utility.yul\":1131:1270   */\n    tag_111:\n        /* \"#utility.yul\":1177:1182   */\n      0x00\n        /* \"#utility.yul\":1215:1221   */\n      dup2\n        /* \"#utility.yul\":1202:1222   */\n      calldataload\n        /* \"#utility.yul\":1193:1222   */\n      swap1\n      pop\n        /* \"#utility.yul\":1231:1264   */\n      tag_148\n        /* \"#utility.yul\":1258:1263   */\n      dup2\n        /* \"#utility.yul\":1231:1264   */\n      tag_110\n      jump\t// in\n    tag_148:\n        /* \"#utility.yul\":1131:1270   */\n      swap3\n      swap2\n      pop\n      pop\n      jump\t// out\n        /* \"#utility.yul\":1276:1605   */\n    tag_20:\n        /* \"#utility.yul\":1335:1341   */\n      0x00\n        /* \"#utility.yul\":1384:1386   */\n      0x20\n        /* \"#utility.yul\":1372:1381   */\n      dup3\n        /* \"#utility.yul\":1363:1370   */\n      dup5\n        /* \"#utility.yul\":1359:1382   */\n      sub\n        /* \"#utility.yul\":1355:1387   */\n      slt\n        /* \"#utility.yul\":1352:1471   */\n      iszero\n      tag_150\n      jumpi\n        /* \"#utility.yul\":1390:1469   */\n      tag_151\n      tag_106\n      jump\t// in\n    tag_151:\n        /* \"#utility.yul\":1352:1471   */\n    tag_150:\n        /* \"#utility.yul\":1510:1511   */\n      0x00\n        /* \"#utility.yul\":1535:1588   */\n      tag_152\n        /* \"#utility.yul\":1580:1587   */\n      dup5\n        /* \"#utility.yul\":1571:1577   */\n      dup3\n        /* \"#utility.yul\":1560:1569   */\n      dup6\n        /* \"#utility.yul\":1556:1578   */\n      add\n        /* \"#utility.yul\":1535:1588   */\n      tag_111\n      jump\t// in\n    tag_152:\n        /* \"#utility.yul\":1525:1588   */\n      swap2\n      pop\n        /* \"#utility.yul\":1481:1598   */\n      pop\n        /* \"#utility.yul\":1276:1605   */\n      swap3\n      swap2\n      pop\n      pop\n      jump\t// out\n        /* \"#utility.yul\":1611:1729   */\n    tag_112:\n        /* \"#utility.yul\":1698:1722   */\n      tag_154\n        /* \"#utility.yul\":1716:1721   */\n      dup2\n        /* \"#utility.yul\":1698:1722   */\n      tag_109\n      jump\t// in\n    tag_154:\n        /* \"#utility.yul\":1693:1696   */\n      dup3\n        /* \"#utility.yul\":1686:1723   */\n      mstore\n        /* \"#utility.yul\":1611:1729   */\n      pop\n      pop\n      jump\t// out\n        /* \"#utility.yul\":1735:1957   */\n    tag_33:\n        /* \"#utility.yul\":1828:1832   */\n      0x00\n        /* \"#utility.yul\":1866:1868   */\n      0x20\n        /* \"#utility.yul\":1855:1864   */\n      dup3\n        /* \"#utility.yul\":1851:1869   */\n      add\n        /* \"#utility.yul\":1843:1869   */\n      swap1\n      pop\n        /* \"#utility.yul\":1879:1950   */\n      tag_156\n        /* \"#utility.yul\":1947:1948   */\n      0x00\n        /* \"#utility.yul\":1936:1945   */\n      dup4\n        /* \"#utility.yul\":1932:1949   */\n      add\n        /* \"#utility.yul\":1923:1929   */\n      dup5\n        /* \"#utility.yul\":1879:1950   */\n      tag_112\n      jump\t// in\n    tag_156:\n        /* \"#utility.yul\":1735:1957   */\n      swap3\n      swap2\n      pop\n      pop\n      jump\t// out\n        /* \"#utility.yul\":1963:2085   */\n    tag_113:\n        /* \"#utility.yul\":2036:2060   */\n      tag_158\n        /* \"#utility.yul\":2054:2059   */\n      dup2\n        /* \"#utility.yul\":2036:2060   */\n      tag_103\n      jump\t// in\n    tag_158:\n        /* \"#utility.yul\":2029:2034   */\n      dup2\n        /* \"#utility.yul\":2026:2061   */\n      eq\n        /* \"#utility.yul\":2016:2079   */\n      tag_159\n      jumpi\n        /* \"#utility.yul\":2075:2076   */\n      0x00\n        /* \"#utility.yul\":2072:2073   */\n      dup1\n        /* \"#utility.yul\":2065:2077   */\n      revert\n        /* \"#utility.yul\":2016:2079   */\n    tag_159:\n        /* \"#utility.yul\":1963:2085   */\n      pop\n      jump\t// out\n        /* \"#utility.yul\":2091:2230   */\n    tag_114:\n        /* \"#utility.yul\":2137:2142   */\n      0x00\n        /* \"#utility.yul\":2175:2181   */\n      dup2\n        /* \"#utility.yul\":2162:2182   */\n      calldataload\n        /* \"#utility.yul\":2153:2182   */\n      swap1\n      pop\n        /* \"#utility.yul\":2191:2224   */\n      tag_161\n        /* \"#utility.yul\":2218:2223   */\n      dup2\n        /* \"#utility.yul\":2191:2224   */\n      tag_113\n      jump\t// in\n    tag_161:\n        /* \"#utility.yul\":2091:2230   */\n      swap3\n      swap2\n      pop\n      pop\n      jump\t// out\n        /* \"#utility.yul\":2236:2565   */\n    tag_37:\n        /* \"#utility.yul\":2295:2301   */\n      0x00\n        /* \"#utility.yul\":2344:2346   */\n      0x20\n        /* \"#utility.yul\":2332:2341   */\n      dup3\n        /* \"#utility.yul\":2323:2330   */\n      dup5\n        /* \"#utility.yul\":2319:2342   */\n      sub\n        /* \"#utility.yul\":2315:2347   */\n      slt\n        /* \"#utility.yul\":2312:2431   */\n      iszero\n      tag_163\n      jumpi\n        /* \"#utility.yul\":2350:2429   */\n      tag_164\n      tag_106\n      jump\t// in\n    tag_164:\n        /* \"#utility.yul\":2312:2431   */\n    tag_163:\n        /* \"#utility.yul\":2470:2471   */\n      0x00\n        /* \"#utility.yul\":2495:2548   */\n      tag_165\n        /* \"#utility.yul\":2540:2547   */\n      dup5\n        /* \"#utility.yul\":2531:2537   */\n      dup3\n        /* \"#utility.yul\":2520:2529   */\n      dup6\n        /* \"#utility.yul\":2516:2538   */\n      add\n        /* \"#utility.yul\":2495:2548   */\n      tag_114\n      jump\t// in\n    tag_165:\n        /* \"#utility.yul\":2485:2548   */\n      swap2\n      pop\n        /* \"#utility.yul\":2441:2558   */\n      pop\n        /* \"#utility.yul\":2236:2565   */\n      swap3\n      swap2\n      pop\n      pop\n      jump\t// out\n        /* \"#utility.yul\":2571:2714   */\n    tag_115:\n        /* \"#utility.yul\":2628:2633   */\n      0x00\n        /* \"#utility.yul\":2659:2665   */\n      dup2\n        /* \"#utility.yul\":2653:2666   */\n      mload\n        /* \"#utility.yul\":2644:2666   */\n      swap1\n      pop\n        /* \"#utility.yul\":2675:2708   */\n      tag_167\n        /* \"#utility.yul\":2702:2707   */\n      dup2\n        /* \"#utility.yul\":2675:2708   */\n      tag_113\n      jump\t// in\n    tag_167:\n        /* \"#utility.yul\":2571:2714   */\n      swap3\n      swap2\n      pop\n      pop\n      jump\t// out\n        /* \"#utility.yul\":2720:3071   */\n    tag_44:\n        /* \"#utility.yul\":2790:2796   */\n      0x00\n        /* \"#utility.yul\":2839:2841   */\n      0x20\n        /* \"#utility.yul\":2827:2836   */\n      dup3\n        /* \"#utility.yul\":2818:2825   */\n      dup5\n        /* \"#utility.yul\":2814:2837   */\n      sub\n        /* \"#utility.yul\":2810:2842   */\n      slt\n        /* \"#utility.yul\":2807:2926   */\n      iszero\n      tag_169\n      jumpi\n        /* \"#utility.yul\":2845:2924   */\n      tag_170\n      tag_106\n      jump\t// in\n    tag_170:\n        /* \"#utility.yul\":2807:2926   */\n    tag_169:\n        /* \"#utility.yul\":2965:2966   */\n      0x00\n        /* \"#utility.yul\":2990:3054   */\n      tag_171\n        /* \"#utility.yul\":3046:3053   */\n      dup5\n        /* \"#utility.yul\":3037:3043   */\n      dup3\n        /* \"#utility.yul\":3026:3035   */\n      dup6\n        /* \"#utility.yul\":3022:3044   */\n      add\n        /* \"#utility.yul\":2990:3054   */\n      tag_115\n      jump\t// in\n    tag_171:\n        /* \"#utility.yul\":2980:3054   */\n      swap2\n      pop\n        /* \"#utility.yul\":2936:3064   */\n      pop\n        /* \"#utility.yul\":2720:3071   */\n      swap3\n      swap2\n      pop\n      pop\n      jump\t// out\n        /* \"#utility.yul\":3077:3257   */\n    tag_53:\n        /* \"#utility.yul\":3125:3202   */\n      0x4e487b7100000000000000000000000000000000000000000000000000000000\n        /* \"#utility.yul\":3122:3123   */\n      0x00\n        /* \"#utility.yul\":3115:3203   */\n      mstore\n        /* \"#utility.yul\":3222:3226   */\n      0x32\n        /* \"#utility.yul\":3219:3220   */\n      0x04\n        /* \"#utility.yul\":3212:3227   */\n      mstore\n        /* \"#utility.yul\":3246:3250   */\n      0x24\n        /* \"#utility.yul\":3243:3244   */\n      0x00\n        /* \"#utility.yul\":3236:3251   */\n      revert\n        /* \"#utility.yul\":3263:3443   */\n    tag_116:\n        /* \"#utility.yul\":3311:3388   */\n      0x4e487b7100000000000000000000000000000000000000000000000000000000\n        /* \"#utility.yul\":3308:3309   */\n      0x00\n        /* \"#utility.yul\":3301:3389   */\n      mstore\n        /* \"#utility.yul\":3408:3412   */\n      0x11\n        /* \"#utility.yul\":3405:3406   */\n      0x04\n        /* \"#utility.yul\":3398:3413   */\n      mstore\n        /* \"#utility.yul\":3432:3436   */\n      0x24\n        /* \"#utility.yul\":3429:3430   */\n      0x00\n        /* \"#utility.yul\":3422:3437   */\n      revert\n        /* \"#utility.yul\":3449:3682   */\n    tag_56:\n        /* \"#utility.yul\":3488:3491   */\n      0x00\n        /* \"#utility.yul\":3511:3535   */\n      tag_175\n        /* \"#utility.yul\":3529:3534   */\n      dup3\n        /* \"#utility.yul\":3511:3535   */\n      tag_103\n      jump\t// in\n    tag_175:\n        /* \"#utility.yul\":3502:3535   */\n      swap2\n      pop\n        /* \"#utility.yul\":3557:3623   */\n      0xffffffffffffffffffffffffffffffffffffffffffffffffffffffffffffffff\n        /* \"#utility.yul\":3550:3555   */\n      dup3\n        /* \"#utility.yul\":3547:3624   */\n      sub\n        /* \"#utility.yul\":3544:3647   */\n      tag_176\n      jumpi\n        /* \"#utility.yul\":3627:3645   */\n      tag_177\n      tag_116\n      jump\t// in\n    tag_177:\n        /* \"#utility.yul\":3544:3647   */\n    tag_176:\n        /* \"#utility.yul\":3674:3675   */\n      0x01\n        /* \"#utility.yul\":3667:3672   */\n      dup3\n        /* \"#utility.yul\":3663:3676   */\n      add\n        /* \"#utility.yul\":3656:3676   */\n      swap1\n      pop\n        /* \"#utility.yul\":3449:3682   */\n      swap2\n      swap1\n      pop\n      jump\t// out\n        /* \"#utility.yul\":3688:3868   */\n    tag_59:\n        /* \"#utility.yul\":3736:3813   */\n      0x4e487b7100000000000000000000000000000000000000000000000000000000\n        /* \"#utility.yul\":3733:3734   */\n      0x00\n        /* \"#utility.yul\":3726:3814   */\n      mstore\n        /* \"#utility.yul\":3833:3837   */\n      0x41\n        /* \"#utility.yul\":3830:3831   */\n      0x04\n        /* \"#utility.yul\":3823:3838   */\n      mstore\n        /* \"#utility.yul\":3857:3861   */\n      0x24\n        /* \"#utility.yul\":3854:3855   */\n      0x00\n        /* \"#utility.yul\":3847:3862   */\n      revert\n        /* \"#utility.yul\":3874:4021   */\n    tag_117:\n        /* \"#utility.yul\":3975:3986   */\n      0x00\n        /* \"#utility.yul\":4012:4015   */\n      dup2\n        /* \"#utility.yul\":3997:4015   */\n      swap1\n      pop\n        /* \"#utility.yul\":3874:4021   */\n      swap3\n      swap2\n      pop\n      pop\n      jump\t// out\n        /* \"#utility.yul\":4027:4141   */\n    tag_118:\n      pop\n      jump\t// out\n        /* \"#utility.yul\":4147:4545   */\n    tag_119:\n        /* \"#utility.yul\":4306:4309   */\n      0x00\n        /* \"#utility.yul\":4327:4410   */\n      tag_182\n        /* \"#utility.yul\":4408:4409   */\n      0x00\n        /* \"#utility.yul\":4403:4406   */\n      dup4\n        /* \"#utility.yul\":4327:4410   */\n      tag_117\n      jump\t// in\n    tag_182:\n        /* \"#utility.yul\":4320:4410   */\n      swap2\n      pop\n        /* \"#utility.yul\":4419:4512   */\n      tag_183\n        /* \"#utility.yul\":4508:4511   */\n      dup3\n        /* \"#utility.yul\":4419:4512   */\n      tag_118\n      jump\t// in\n    tag_183:\n        /* \"#utility.yul\":4537:4538   */\n      0x00\n        /* \"#utility.yul\":4532:4535   */\n      dup3\n        /* \"#utility.yul\":4528:4539   */\n      add\n        /* \"#utility.yul\":4521:4539   */\n      swap1\n      pop\n        /* \"#utility.yul\":4147:4545   */\n      swap2\n      swap1\n      pop\n      jump\t// out\n        /* \"#utility.yul\":4551:4930   */\n    tag_64:\n        /* \"#utility.yul\":4735:4738   */\n      0x00\n        /* \"#utility.yul\":4757:4904   */\n      tag_185\n        /* \"#utility.yul\":4900:4903   */\n      dup3\n        /* \"#utility.yul\":4757:4904   */\n      tag_119\n      jump\t// in\n    tag_185:\n        /* \"#utility.yul\":4750:4904   */\n      swap2\n      pop\n        /* \"#utility.yul\":4921:4924   */\n      dup2\n        /* \"#utility.yul\":4914:4924   */\n      swap1\n      pop\n        /* \"#utility.yul\":4551:4930   */\n      swap2\n      swap1\n      pop\n      jump\t// out\n        /* \"#utility.yul\":4936:5105   */\n    tag_120:\n        /* \"#utility.yul\":5020:5031   */\n      0x00\n        /* \"#utility.yul\":5054:5060   */\n      dup3\n        /* \"#utility.yul\":5049:5052   */\n      dup3\n        /* \"#utility.yul\":5042:5061   */\n      mstore\n        /* \"#utility.yul\":5094:5098   */\n      0x20\n        /* \"#utility.yul\":5089:5092   */\n      dup3\n        /* \"#utility.yul\":5085:5099   */\n      add\n        /* \"#utility.yul\":5070:5099   */\n      swap1\n      pop\n        /* \"#utility.yul\":4936:5105   */\n      swap3\n      swap2\n      pop\n      pop\n      jump\t// out\n        /* \"#utility.yul\":5111:5272   */\n    tag_121:\n        /* \"#utility.yul\":5251:5264   */\n      0x43616c6c206661696c6564000000000000000000000000000000000000000000\n        /* \"#utility.yul\":5247:5248   */\n      0x00\n        /* \"#utility.yul\":5239:5245   */\n      dup3\n        /* \"#utility.yul\":5235:5249   */\n      add\n        /* \"#utility.yul\":5228:5265   */\n      mstore\n        /* \"#utility.yul\":5111:5272   */\n      pop\n      jump\t// out\n        /* \"#utility.yul\":5278:5644   */\n    tag_122:\n        /* \"#utility.yul\":5420:5423   */\n      0x00\n        /* \"#utility.yul\":5441:5508   */\n      tag_189\n        /* \"#utility.yul\":5505:5507   */\n      0x0b\n        /* \"#utility.yul\":5500:5503   */\n      dup4\n        /* \"#utility.yul\":5441:5508   */\n      tag_120\n      jump\t// in\n    tag_189:\n        /* \"#utility.yul\":5434:5508   */\n      swap2\n      pop\n        /* \"#utility.yul\":5517:5610   */\n      tag_190\n        /* \"#utility.yul\":5606:5609   */\n      dup3\n        /* \"#utility.yul\":5517:5610   */\n      tag_121\n      jump\t// in\n    tag_190:\n        /* \"#utility.yul\":5635:5637   */\n      0x20\n        /* \"#utility.yul\":5630:5633   */\n      dup3\n        /* \"#utility.yul\":5626:5638   */\n      add\n        /* \"#utility.yul\":5619:5638   */\n      swap1\n      pop\n        /* \"#utility.yul\":5278:5644   */\n      swap2\n      swap1\n      pop\n      jump\t// out\n        /* \"#utility.yul\":5650:6069   */\n    tag_70:\n        /* \"#utility.yul\":5816:5820   */\n      0x00\n        /* \"#utility.yul\":5854:5856   */\n      0x20\n        /* \"#utility.yul\":5843:5852   */\n      dup3\n        /* \"#utility.yul\":5839:5857   */\n      add\n        /* \"#utility.yul\":5831:5857   */\n      swap1\n      pop\n        /* \"#utility.yul\":5903:5912   */\n      dup2\n        /* \"#utility.yul\":5897:5901   */\n      dup2\n        /* \"#utility.yul\":5893:5913   */\n      sub\n        /* \"#utility.yul\":5889:5890   */\n      0x00\n        /* \"#utility.yul\":5878:5887   */\n      dup4\n        /* \"#utility.yul\":5874:5891   */\n      add\n        /* \"#utility.yul\":5867:5914   */\n      mstore\n        /* \"#utility.yul\":5931:6062   */\n      tag_192\n        /* \"#utility.yul\":6057:6061   */\n      dup2\n        /* \"#utility.yul\":5931:6062   */\n      tag_122\n      jump\t// in\n    tag_192:\n        /* \"#utility.yul\":5923:6062   */\n      swap1\n      pop\n        /* \"#utility.yul\":5650:6069   */\n      swap2\n      swap1\n      pop\n      jump\t// out\n        /* \"#utility.yul\":6075:6252   */\n    tag_123:\n        /* \"#utility.yul\":6215:6244   */\n      0x596f75206e65656420746f207370656e64206d6f726520455448210000000000\n        /* \"#utility.yul\":6211:6212   */\n      0x00\n        /* \"#utility.yul\":6203:6209   */\n      dup3\n        /* \"#utility.yul\":6199:6213   */\n      add\n        /* \"#utility.yul\":6192:6245   */\n      mstore\n        /* \"#utility.yul\":6075:6252   */\n      pop\n      jump\t// out\n        /* \"#utility.yul\":6258:6624   */\n    tag_124:\n        /* \"#utility.yul\":6400:6403   */\n      0x00\n        /* \"#utility.yul\":6421:6488   */\n      tag_195\n        /* \"#utility.yul\":6485:6487   */\n      0x1b\n        /* \"#utility.yul\":6480:6483   */\n      dup4\n        /* \"#utility.yul\":6421:6488   */\n      tag_120\n      jump\t// in\n    tag_195:\n        /* \"#utility.yul\":6414:6488   */\n      swap2\n      pop\n        /* \"#utility.yul\":6497:6590   */\n      tag_196\n        /* \"#utility.yul\":6586:6589   */\n      dup3\n        /* \"#utility.yul\":6497:6590   */\n      tag_123\n      jump\t// in\n    tag_196:\n        /* \"#utility.yul\":6615:6617   */\n      0x20\n        /* \"#utility.yul\":6610:6613   */\n      dup3\n        /* \"#utility.yul\":6606:6618   */\n      add\n        /* \"#utility.yul\":6599:6618   */\n      swap1\n      pop\n        /* \"#utility.yul\":6258:6624   */\n      swap2\n      swap1\n      pop\n      jump\t// out\n        /* \"#utility.yul\":6630:7049   */\n    tag_76:\n        /* \"#utility.yul\":6796:6800   */\n      0x00\n        /* \"#utility.yul\":6834:6836   */\n      0x20\n        /* \"#utility.yul\":6823:6832   */\n      dup3\n        /* \"#utility.yul\":6819:6837   */\n      add\n        /* \"#utility.yul\":6811:6837   */\n      swap1\n      pop\n        /* \"#utility.yul\":6883:6892   */\n      dup2\n        /* \"#utility.yul\":6877:6881   */\n      dup2\n        /* \"#utility.yul\":6873:6893   */\n      sub\n        /* \"#utility.yul\":6869:6870   */\n      0x00\n        /* \"#utility.yul\":6858:6867   */\n      dup4\n        /* \"#utility.yul\":6854:6871   */\n      add\n        /* \"#utility.yul\":6847:6894   */\n      mstore\n        /* \"#utility.yul\":6911:7042   */\n      tag_198\n        /* \"#utility.yul\":7037:7041   */\n      dup2\n        /* \"#utility.yul\":6911:7042   */\n      tag_124\n      jump\t// in\n    tag_198:\n        /* \"#utility.yul\":6903:7042   */\n      swap1\n      pop\n        /* \"#utility.yul\":6630:7049   */\n      swap2\n      swap1\n      pop\n      jump\t// out\n        /* \"#utility.yul\":7055:7246   */\n    tag_78:\n        /* \"#utility.yul\":7095:7098   */\n      0x00\n        /* \"#utility.yul\":7114:7134   */\n      tag_200\n        /* \"#utility.yul\":7132:7133   */\n      dup3\n        /* \"#utility.yul\":7114:7134   */\n      tag_103\n      jump\t// in\n    tag_200:\n        /* \"#utility.yul\":7109:7134   */\n      swap2\n      pop\n        /* \"#utility.yul\":7148:7168   */\n      tag_201\n        /* \"#utility.yul\":7166:7167   */\n      dup4\n        /* \"#utility.yul\":7148:7168   */\n      tag_103\n      jump\t// in\n    tag_201:\n        /* \"#utility.yul\":7143:7168   */\n      swap3\n      pop\n        /* \"#utility.yul\":7191:7192   */\n      dup3\n        /* \"#utility.yul\":7188:7189   */\n      dup3\n        /* \"#utility.yul\":7184:7193   */\n      add\n        /* \"#utility.yul\":7177:7193   */\n      swap1\n      pop\n        /* \"#utility.yul\":7212:7215   */\n      dup1\n        /* \"#utility.yul\":7209:7210   */\n      dup3\n        /* \"#utility.yul\":7206:7216   */\n      gt\n        /* \"#utility.yul\":7203:7239   */\n      iszero\n      tag_202\n      jumpi\n        /* \"#utility.yul\":7219:7237   */\n      tag_203\n      tag_116\n      jump\t// in\n    tag_203:\n        /* \"#utility.yul\":7203:7239   */\n    tag_202:\n        /* \"#utility.yul\":7055:7246   */\n      swap3\n      swap2\n      pop\n      pop\n      jump\t// out\n        /* \"#utility.yul\":7252:7600   */\n    tag_86:\n        /* \"#utility.yul\":7292:7299   */\n      0x00\n        /* \"#utility.yul\":7315:7335   */\n      tag_205\n        /* \"#utility.yul\":7333:7334   */\n      dup3\n        /* \"#utility.yul\":7315:7335   */\n      tag_103\n      jump\t// in\n    tag_205:\n        /* \"#utility.yul\":7310:7335   */\n      swap2\n      pop\n        /* \"#utility.yul\":7349:7369   */\n      tag_206\n        /* \"#utility.yul\":7367:7368   */\n      dup4\n        /* \"#utility.yul\":7349:7369   */\n      tag_103\n      jump\t// in\n    tag_206:\n        /* \"#utility.yul\":7344:7369   */\n      swap3\n      pop\n        /* \"#utility.yul\":7537:7538   */\n      dup2\n        /* \"#utility.yul\":7469:7535   */\n      0xffffffffffffffffffffffffffffffffffffffffffffffffffffffffffffffff\n        /* \"#utility.yul\":7465:7539   */\n      div\n        /* \"#utility.yul\":7462:7463   */\n      dup4\n        /* \"#utility.yul\":7459:7540   */\n      gt\n        /* \"#utility.yul\":7454:7455   */\n      dup3\n        /* \"#utility.yul\":7447:7456   */\n      iszero\n        /* \"#utility.yul\":7440:7457   */\n      iszero\n        /* \"#utility.yul\":7436:7541   */\n      and\n        /* \"#utility.yul\":7433:7564   */\n      iszero\n      tag_207\n      jumpi\n        /* \"#utility.yul\":7544:7562   */\n      tag_208\n      tag_116\n      jump\t// in\n    tag_208:\n        /* \"#utility.yul\":7433:7564   */\n    tag_207:\n        /* \"#utility.yul\":7592:7593   */\n      dup3\n        /* \"#utility.yul\":7589:7590   */\n      dup3\n        /* \"#utility.yul\":7585:7594   */\n      mul\n        /* \"#utility.yul\":7574:7594   */\n      swap1\n      pop\n        /* \"#utility.yul\":7252:7600   */\n      swap3\n      swap2\n      pop\n      pop\n      jump\t// out\n        /* \"#utility.yul\":7606:7786   */\n    tag_125:\n        /* \"#utility.yul\":7654:7731   */\n      0x4e487b7100000000000000000000000000000000000000000000000000000000\n        /* \"#utility.yul\":7651:7652   */\n      0x00\n        /* \"#utility.yul\":7644:7732   */\n      mstore\n        /* \"#utility.yul\":7751:7755   */\n      0x12\n        /* \"#utility.yul\":7748:7749   */\n      0x04\n        /* \"#utility.yul\":7741:7756   */\n      mstore\n        /* \"#utility.yul\":7775:7779   */\n      0x24\n        /* \"#utility.yul\":7772:7773   */\n      0x00\n        /* \"#utility.yul\":7765:7780   */\n      revert\n        /* \"#utility.yul\":7792:7977   */\n    tag_88:\n        /* \"#utility.yul\":7832:7833   */\n      0x00\n        /* \"#utility.yul\":7849:7869   */\n      tag_211\n        /* \"#utility.yul\":7867:7868   */\n      dup3\n        /* \"#utility.yul\":7849:7869   */\n      tag_103\n      jump\t// in\n    tag_211:\n        /* \"#utility.yul\":7844:7869   */\n      swap2\n      pop\n        /* \"#utility.yul\":7883:7903   */\n      tag_212\n        /* \"#utility.yul\":7901:7902   */\n      dup4\n        /* \"#utility.yul\":7883:7903   */\n      tag_103\n      jump\t// in\n    tag_212:\n        /* \"#utility.yul\":7878:7903   */\n      swap3\n      pop\n        /* \"#utility.yul\":7922:7923   */\n      dup3\n        /* \"#utility.yul\":7912:7947   */\n      tag_213\n      jumpi\n        /* \"#utility.yul\":7927:7945   */\n      tag_214\n      tag_125\n      jump\t// in\n    tag_214:\n        /* \"#utility.yul\":7912:7947   */\n    tag_213:\n        /* \"#utility.yul\":7969:7970   */\n      dup3\n        /* \"#utility.yul\":7966:7967   */\n      dup3\n        /* \"#utility.yul\":7962:7971   */\n      div\n        /* \"#utility.yul\":7957:7971   */\n      swap1\n      pop\n        /* \"#utility.yul\":7792:7977   */\n      swap3\n      swap2\n      pop\n      pop\n      jump\t// out\n        /* \"#utility.yul\":7983:8088   */\n    tag_126:\n        /* \"#utility.yul\":8019:8026   */\n      0x00\n        /* \"#utility.yul\":8059:8081   */\n      0xffffffffffffffffffff\n        /* \"#utility.yul\":8052:8057   */\n      dup3\n        /* \"#utility.yul\":8048:8082   */\n      and\n        /* \"#utility.yul\":8037:8082   */\n      swap1\n      pop\n        /* \"#utility.yul\":7983:8088   */\n      swap2\n      swap1\n      pop\n      jump\t// out\n        /* \"#utility.yul\":8094:8214   */\n    tag_127:\n        /* \"#utility.yul\":8166:8189   */\n      tag_217\n        /* \"#utility.yul\":8183:8188   */\n      dup2\n        /* \"#utility.yul\":8166:8189   */\n      tag_126\n      jump\t// in\n    tag_217:\n        /* \"#utility.yul\":8159:8164   */\n      dup2\n        /* \"#utility.yul\":8156:8190   */\n      eq\n        /* \"#utility.yul\":8146:8208   */\n      tag_218\n      jumpi\n        /* \"#utility.yul\":8204:8205   */\n      0x00\n        /* \"#utility.yul\":8201:8202   */\n      dup1\n        /* \"#utility.yul\":8194:8206   */\n      revert\n        /* \"#utility.yul\":8146:8208   */\n    tag_218:\n        /* \"#utility.yul\":8094:8214   */\n      pop\n      jump\t// out\n        /* \"#utility.yul\":8220:8361   */\n    tag_128:\n        /* \"#utility.yul\":8276:8281   */\n      0x00\n        /* \"#utility.yul\":8307:8313   */\n      dup2\n        /* \"#utility.yul\":8301:8314   */\n      mload\n        /* \"#utility.yul\":8292:8314   */\n      swap1\n      pop\n        /* \"#utility.yul\":8323:8355   */\n      tag_220\n        /* \"#utility.yul\":8349:8354   */\n      dup2\n        /* \"#utility.yul\":8323:8355   */\n      tag_127\n      jump\t// in\n    tag_220:\n        /* \"#utility.yul\":8220:8361   */\n      swap3\n      swap2\n      pop\n      pop\n      jump\t// out\n        /* \"#utility.yul\":8367:8443   */\n    tag_129:\n        /* \"#utility.yul\":8403:8410   */\n      0x00\n        /* \"#utility.yul\":8432:8437   */\n      dup2\n        /* \"#utility.yul\":8421:8437   */\n      swap1\n      pop\n        /* \"#utility.yul\":8367:8443   */\n      swap2\n      swap1\n      pop\n      jump\t// out\n        /* \"#utility.yul\":8449:8569   */\n    tag_130:\n        /* \"#utility.yul\":8521:8544   */\n      tag_223\n        /* \"#utility.yul\":8538:8543   */\n      dup2\n        /* \"#utility.yul\":8521:8544   */\n      tag_129\n      jump\t// in\n    tag_223:\n        /* \"#utility.yul\":8514:8519   */\n      dup2\n        /* \"#utility.yul\":8511:8545   */\n      eq\n        /* \"#utility.yul\":8501:8563   */\n      tag_224\n      jumpi\n        /* \"#utility.yul\":8559:8560   */\n      0x00\n        /* \"#utility.yul\":8556:8557   */\n      dup1\n        /* \"#utility.yul\":8549:8561   */\n      revert\n        /* \"#utility.yul\":8501:8563   */\n    tag_224:\n        /* \"#utility.yul\":8449:8569   */\n      pop\n      jump\t// out\n        /* \"#utility.yul\":8575:8716   */\n    tag_131:\n        /* \"#utility.yul\":8631:8636   */\n      0x00\n        /* \"#utility.yul\":8662:8668   */\n      dup2\n        /* \"#utility.yul\":8656:8669   */\n      mload\n        /* \"#utility.yul\":8647:8669   */\n      swap1\n      pop\n        /* \"#utility.yul\":8678:8710   */\n      tag_226\n        /* \"#utility.yul\":8704:8709   */\n      dup2\n        /* \"#utility.yul\":8678:8710   */\n      tag_130\n      jump\t// in\n    tag_226:\n        /* \"#utility.yul\":8575:8716   */\n      swap3\n      swap2\n      pop\n      pop\n      jump\t// out\n        /* \"#utility.yul\":8722:9693   */\n    tag_93:\n        /* \"#utility.yul\":8825:8831   */\n      0x00\n        /* \"#utility.yul\":8833:8839   */\n      dup1\n        /* \"#utility.yul\":8841:8847   */\n      0x00\n        /* \"#utility.yul\":8849:8855   */\n      dup1\n        /* \"#utility.yul\":8857:8863   */\n      0x00\n        /* \"#utility.yul\":8906:8909   */\n      0xa0\n        /* \"#utility.yul\":8894:8903   */\n      dup7\n        /* \"#utility.yul\":8885:8892   */\n      dup9\n        /* \"#utility.yul\":8881:8904   */\n      sub\n        /* \"#utility.yul\":8877:8910   */\n      slt\n        /* \"#utility.yul\":8874:8994   */\n      iszero\n      tag_228\n      jumpi\n        /* \"#utility.yul\":8913:8992   */\n      tag_229\n      tag_106\n      jump\t// in\n    tag_229:\n        /* \"#utility.yul\":8874:8994   */\n    tag_228:\n        /* \"#utility.yul\":9033:9034   */\n      0x00\n        /* \"#utility.yul\":9058:9121   */\n      tag_230\n        /* \"#utility.yul\":9113:9120   */\n      dup9\n        /* \"#utility.yul\":9104:9110   */\n      dup3\n        /* \"#utility.yul\":9093:9102   */\n      dup10\n        /* \"#utility.yul\":9089:9111   */\n      add\n        /* \"#utility.yul\":9058:9121   */\n      tag_128\n      jump\t// in\n    tag_230:\n        /* \"#utility.yul\":9048:9121   */\n      swap6\n      pop\n        /* \"#utility.yul\":9004:9131   */\n      pop\n        /* \"#utility.yul\":9170:9172   */\n      0x20\n        /* \"#utility.yul\":9196:9259   */\n      tag_231\n        /* \"#utility.yul\":9251:9258   */\n      dup9\n        /* \"#utility.yul\":9242:9248   */\n      dup3\n        /* \"#utility.yul\":9231:9240   */\n      dup10\n        /* \"#utility.yul\":9227:9249   */\n      add\n        /* \"#utility.yul\":9196:9259   */\n      tag_131\n      jump\t// in\n    tag_231:\n        /* \"#utility.yul\":9186:9259   */\n      swap5\n      pop\n        /* \"#utility.yul\":9141:9269   */\n      pop\n        /* \"#utility.yul\":9308:9310   */\n      0x40\n        /* \"#utility.yul\":9334:9398   */\n      tag_232\n        /* \"#utility.yul\":9390:9397   */\n      dup9\n        /* \"#utility.yul\":9381:9387   */\n      dup3\n        /* \"#utility.yul\":9370:9379   */\n      dup10\n        /* \"#utility.yul\":9366:9388   */\n      add\n        /* \"#utility.yul\":9334:9398   */\n      tag_115\n      jump\t// in\n    tag_232:\n        /* \"#utility.yul\":9324:9398   */\n      swap4\n      pop\n        /* \"#utility.yul\":9279:9408   */\n      pop\n        /* \"#utility.yul\":9447:9449   */\n      0x60\n        /* \"#utility.yul\":9473:9537   */\n      tag_233\n        /* \"#utility.yul\":9529:9536   */\n      dup9\n        /* \"#utility.yul\":9520:9526   */\n      dup3\n        /* \"#utility.yul\":9509:9518   */\n      dup10\n        /* \"#utility.yul\":9505:9527   */\n      add\n        /* \"#utility.yul\":9473:9537   */\n      tag_115\n      jump\t// in\n    tag_233:\n        /* \"#utility.yul\":9463:9537   */\n      swap3\n      pop\n        /* \"#utility.yul\":9418:9547   */\n      pop\n        /* \"#utility.yul\":9586:9589   */\n      0x80\n        /* \"#utility.yul\":9613:9676   */\n      tag_234\n        /* \"#utility.yul\":9668:9675   */\n      dup9\n        /* \"#utility.yul\":9659:9665   */\n      dup3\n        /* \"#utility.yul\":9648:9657   */\n      dup10\n        /* \"#utility.yul\":9644:9666   */\n      add\n        /* \"#utility.yul\":9613:9676   */\n      tag_128\n      jump\t// in\n    tag_234:\n        /* \"#utility.yul\":9603:9676   */\n      swap2\n      pop\n        /* \"#utility.yul\":9557:9686   */\n      pop\n        /* \"#utility.yul\":8722:9693   */\n      swap3\n      swap6\n      pop\n      swap3\n      swap6\n      swap1\n      swap4\n      pop\n      jump\t// out\n        /* \"#utility.yul\":9699:10690   */\n    tag_95:\n        /* \"#utility.yul\":9738:9745   */\n      0x00\n        /* \"#utility.yul\":9761:9780   */\n      tag_236\n        /* \"#utility.yul\":9778:9779   */\n      dup3\n        /* \"#utility.yul\":9761:9780   */\n      tag_129\n      jump\t// in\n    tag_236:\n        /* \"#utility.yul\":9756:9780   */\n      swap2\n      pop\n        /* \"#utility.yul\":9794:9813   */\n      tag_237\n        /* \"#utility.yul\":9811:9812   */\n      dup4\n        /* \"#utility.yul\":9794:9813   */\n      tag_129\n      jump\t// in\n    tag_237:\n        /* \"#utility.yul\":9789:9813   */\n      swap3\n      pop\n        /* \"#utility.yul\":9995:9996   */\n      dup3\n        /* \"#utility.yul\":9927:9993   */\n      0x7fffffffffffffffffffffffffffffffffffffffffffffffffffffffffffffff\n        /* \"#utility.yul\":9923:9997   */\n      div\n        /* \"#utility.yul\":9920:9921   */\n      dup3\n        /* \"#utility.yul\":9917:9998   */\n      gt\n        /* \"#utility.yul\":9912:9913   */\n      0x00\n        /* \"#utility.yul\":9909:9910   */\n      dup5\n        /* \"#utility.yul\":9905:9914   */\n      sgt\n        /* \"#utility.yul\":9901:9902   */\n      0x00\n        /* \"#utility.yul\":9898:9899   */\n      dup5\n        /* \"#utility.yul\":9894:9903   */\n      sgt\n        /* \"#utility.yul\":9890:9915   */\n      and\n        /* \"#utility.yul\":9886:9999   */\n      and\n        /* \"#utility.yul\":9883:10022   */\n      iszero\n      tag_238\n      jumpi\n        /* \"#utility.yul\":10002:10020   */\n      tag_239\n      tag_116\n      jump\t// in\n    tag_239:\n        /* \"#utility.yul\":9883:10022   */\n    tag_238:\n        /* \"#utility.yul\":10206:10207   */\n      dup2\n        /* \"#utility.yul\":10138:10204   */\n      0x8000000000000000000000000000000000000000000000000000000000000000\n        /* \"#utility.yul\":10133:10208   */\n      sdiv\n        /* \"#utility.yul\":10130:10131   */\n      dup4\n        /* \"#utility.yul\":10126:10209   */\n      slt\n        /* \"#utility.yul\":10121:10122   */\n      0x00\n        /* \"#utility.yul\":10118:10119   */\n      dup5\n        /* \"#utility.yul\":10114:10123   */\n      slt\n        /* \"#utility.yul\":10110:10111   */\n      0x00\n        /* \"#utility.yul\":10107:10108   */\n      dup5\n        /* \"#utility.yul\":10103:10112   */\n      sgt\n        /* \"#utility.yul\":10099:10124   */\n      and\n        /* \"#utility.yul\":10095:10210   */\n      and\n        /* \"#utility.yul\":10092:10233   */\n      iszero\n      tag_240\n      jumpi\n        /* \"#utility.yul\":10213:10231   */\n      tag_241\n      tag_116\n      jump\t// in\n    tag_241:\n        /* \"#utility.yul\":10092:10233   */\n    tag_240:\n        /* \"#utility.yul\":10417:10418   */\n      dup3\n        /* \"#utility.yul\":10349:10415   */\n      0x8000000000000000000000000000000000000000000000000000000000000000\n        /* \"#utility.yul\":10344:10419   */\n      sdiv\n        /* \"#utility.yul\":10341:10342   */\n      dup3\n        /* \"#utility.yul\":10337:10420   */\n      slt\n        /* \"#utility.yul\":10332:10333   */\n      0x00\n        /* \"#utility.yul\":10329:10330   */\n      dup5\n        /* \"#utility.yul\":10325:10334   */\n      sgt\n        /* \"#utility.yul\":10321:10322   */\n      0x00\n        /* \"#utility.yul\":10318:10319   */\n      dup5\n        /* \"#utility.yul\":10314:10323   */\n      slt\n        /* \"#utility.yul\":10310:10335   */\n      and\n        /* \"#utility.yul\":10306:10421   */\n      and\n        /* \"#utility.yul\":10303:10444   */\n      iszero\n      tag_242\n      jumpi\n        /* \"#utility.yul\":10424:10442   */\n      tag_243\n      tag_116\n      jump\t// in\n    tag_243:\n        /* \"#utility.yul\":10303:10444   */\n    tag_242:\n        /* \"#utility.yul\":10627:10628   */\n      dup3\n        /* \"#utility.yul\":10559:10625   */\n      0x7fffffffffffffffffffffffffffffffffffffffffffffffffffffffffffffff\n        /* \"#utility.yul\":10554:10629   */\n      sdiv\n        /* \"#utility.yul\":10551:10552   */\n      dup3\n        /* \"#utility.yul\":10547:10630   */\n      slt\n        /* \"#utility.yul\":10542:10543   */\n      0x00\n        /* \"#utility.yul\":10539:10540   */\n      dup5\n        /* \"#utility.yul\":10535:10544   */\n      slt\n        /* \"#utility.yul\":10531:10532   */\n      0x00\n        /* \"#utility.yul\":10528:10529   */\n      dup5\n        /* \"#utility.yul\":10524:10533   */\n      slt\n        /* \"#utility.yul\":10520:10545   */\n      and\n        /* \"#utility.yul\":10516:10631   */\n      and\n        /* \"#utility.yul\":10513:10654   */\n      iszero\n      tag_244\n      jumpi\n        /* \"#utility.yul\":10634:10652   */\n      tag_245\n      tag_116\n      jump\t// in\n    tag_245:\n        /* \"#utility.yul\":10513:10654   */\n    tag_244:\n        /* \"#utility.yul\":10682:10683   */\n      dup3\n        /* \"#utility.yul\":10679:10680   */\n      dup3\n        /* \"#utility.yul\":10675:10684   */\n      mul\n        /* \"#utility.yul\":10664:10684   */\n      swap1\n      pop\n        /* \"#utility.yul\":9699:10690   */\n      swap3\n      swap2\n      pop\n      pop\n      jump\t// out\n\n    auxdata: 0xa2646970667358221220635f369d394c0577067c0f8f657fa34985b86efeca1f67700c243140caca5c1464736f6c63430008100033\n}\n",
				"bytecode": {
					"linkReferences": {},
					"object": "608060405234801561001057600080fd5b5033600260006101000a81548173ffffffffffffffffffffffffffffffffffffffff021916908373ffffffffffffffffffffffffffffffffffffffff160217905550610e22806100616000396000f3fe6080604052600436106100705760003560e01c80636b69a5921161004e5780636b69a592146100e7578063b60d428814610112578063dba6335f1461011c578063dc0d3dff1461014757610070565b80630d8e6e2c146100755780633ccfd60b146100a05780633e47d6f3146100aa575b600080fd5b34801561008157600080fd5b5061008a610184565b6040516100979190610780565b60405180910390f35b6100a8610213565b005b3480156100b657600080fd5b506100d160048036038101906100cc91906107fe565b610455565b6040516100de9190610780565b60405180910390f35b3480156100f357600080fd5b506100fc61046d565b6040516101099190610780565b60405180910390f35b61011a610472565b005b34801561012857600080fd5b50610131610578565b60405161013e919061083a565b60405180910390f35b34801561015357600080fd5b5061016e60048036038101906101699190610881565b61059e565b60405161017b919061083a565b60405180910390f35b600080738a753747a1fa494ec906ce90e9f37563a8af630e90508073ffffffffffffffffffffffffffffffffffffffff166354fd4d506040518163ffffffff1660e01b8152600401602060405180830381865afa1580156101e9573d6000803e3d6000fd5b505050506040513d601f19601f8201168201806040525081019061020d91906108c3565b91505090565b600260009054906101000a900473ffffffffffffffffffffffffffffffffffffffff1673ffffffffffffffffffffffffffffffffffffffff163373ffffffffffffffffffffffffffffffffffffffff161461029a576040517f30cd747100000000000000000000000000000000000000000000000000000000815260040160405180910390fd5b60005b600180549050811015610345576000600182815481106102c0576102bf6108f0565b5b9060005260206000200160009054906101000a900473ffffffffffffffffffffffffffffffffffffffff16905060008060008373ffffffffffffffffffffffffffffffffffffffff1673ffffffffffffffffffffffffffffffffffffffff1681526020019081526020016000208190555050808061033d9061094e565b91505061029d565b50600067ffffffffffffffff81111561036157610360610996565b5b60405190808252806020026020018201604052801561038f5781602001602082028036833780820191505090505b50600190805190602001906103a59291906106c0565b5060003373ffffffffffffffffffffffffffffffffffffffff16476040516103cc906109f6565b60006040518083038185875af1925050503d8060008114610409576040519150601f19603f3d011682016040523d82523d6000602084013e61040e565b606091505b5050905080610452576040517f08c379a000000000000000000000000000000000000000000000000000000000815260040161044990610a68565b60405180910390fd5b50565b60006020528060005260406000206000915090505481565b603281565b603261047d346105dd565b10156104be576040517f08c379a00000000000000000000000000000000000000000000000000000000081526004016104b590610ad4565b60405180910390fd5b346000803373ffffffffffffffffffffffffffffffffffffffff1673ffffffffffffffffffffffffffffffffffffffff168152602001908152602001600020600082825461050c9190610af4565b925050819055506001339080600181540180825580915050600190039060005260206000200160009091909190916101000a81548173ffffffffffffffffffffffffffffffffffffffff021916908373ffffffffffffffffffffffffffffffffffffffff160217905550565b600260009054906101000a900473ffffffffffffffffffffffffffffffffffffffff1681565b600181815481106105ae57600080fd5b906000526020600020016000915054906101000a900473ffffffffffffffffffffffffffffffffffffffff1681565b6000806105e8610617565b90506000670de0b6b3a764000084836106019190610b28565b61060b9190610bb1565b90508092505050919050565b600080738a753747a1fa494ec906ce90e9f37563a8af630e905060008173ffffffffffffffffffffffffffffffffffffffff1663feaf968c6040518163ffffffff1660e01b815260040160a060405180830381865afa15801561067e573d6000803e3d6000fd5b505050506040513d601f19601f820116820180604052508101906106a29190610c5a565b5050509150506402540be400816106b99190610cd5565b9250505090565b828054828255906000526020600020908101928215610739579160200282015b828111156107385782518260006101000a81548173ffffffffffffffffffffffffffffffffffffffff021916908373ffffffffffffffffffffffffffffffffffffffff160217905550916020019190600101906106e0565b5b509050610746919061074a565b5090565b5b8082111561076357600081600090555060010161074b565b5090565b6000819050919050565b61077a81610767565b82525050565b60006020820190506107956000830184610771565b92915050565b600080fd5b600073ffffffffffffffffffffffffffffffffffffffff82169050919050565b60006107cb826107a0565b9050919050565b6107db816107c0565b81146107e657600080fd5b50565b6000813590506107f8816107d2565b92915050565b6000602082840312156108145761081361079b565b5b6000610822848285016107e9565b91505092915050565b610834816107c0565b82525050565b600060208201905061084f600083018461082b565b92915050565b61085e81610767565b811461086957600080fd5b50565b60008135905061087b81610855565b92915050565b6000602082840312156108975761089661079b565b5b60006108a58482850161086c565b91505092915050565b6000815190506108bd81610855565b92915050565b6000602082840312156108d9576108d861079b565b5b60006108e7848285016108ae565b91505092915050565b7f4e487b7100000000000000000000000000000000000000000000000000000000600052603260045260246000fd5b7f4e487b7100000000000000000000000000000000000000000000000000000000600052601160045260246000fd5b600061095982610767565b91507fffffffffffffffffffffffffffffffffffffffffffffffffffffffffffffffff820361098b5761098a61091f565b5b600182019050919050565b7f4e487b7100000000000000000000000000000000000000000000000000000000600052604160045260246000fd5b600081905092915050565b50565b60006109e06000836109c5565b91506109eb826109d0565b600082019050919050565b6000610a01826109d3565b9150819050919050565b600082825260208201905092915050565b7f43616c6c206661696c6564000000000000000000000000000000000000000000600082015250565b6000610a52600b83610a0b565b9150610a5d82610a1c565b602082019050919050565b60006020820190508181036000830152610a8181610a45565b9050919050565b7f596f75206e65656420746f207370656e64206d6f726520455448210000000000600082015250565b6000610abe601b83610a0b565b9150610ac982610a88565b602082019050919050565b60006020820190508181036000830152610aed81610ab1565b9050919050565b6000610aff82610767565b9150610b0a83610767565b9250828201905080821115610b2257610b2161091f565b5b92915050565b6000610b3382610767565b9150610b3e83610767565b9250817fffffffffffffffffffffffffffffffffffffffffffffffffffffffffffffffff0483118215151615610b7757610b7661091f565b5b828202905092915050565b7f4e487b7100000000000000000000000000000000000000000000000000000000600052601260045260246000fd5b6000610bbc82610767565b9150610bc783610767565b925082610bd757610bd6610b82565b5b828204905092915050565b600069ffffffffffffffffffff82169050919050565b610c0181610be2565b8114610c0c57600080fd5b50565b600081519050610c1e81610bf8565b92915050565b6000819050919050565b610c3781610c24565b8114610c4257600080fd5b50565b600081519050610c5481610c2e565b92915050565b600080600080600060a08688031215610c7657610c7561079b565b5b6000610c8488828901610c0f565b9550506020610c9588828901610c45565b9450506040610ca6888289016108ae565b9350506060610cb7888289016108ae565b9250506080610cc888828901610c0f565b9150509295509295909350565b6000610ce082610c24565b9150610ceb83610c24565b9250827f7fffffffffffffffffffffffffffffffffffffffffffffffffffffffffffffff0482116000841360008413161615610d2a57610d2961091f565b5b817f80000000000000000000000000000000000000000000000000000000000000000583126000841260008413161615610d6757610d6661091f565b5b827f80000000000000000000000000000000000000000000000000000000000000000582126000841360008412161615610da457610da361091f565b5b827f7fffffffffffffffffffffffffffffffffffffffffffffffffffffffffffffff0582126000841260008412161615610de157610de061091f565b5b82820290509291505056fea2646970667358221220635f369d394c0577067c0f8f657fa34985b86efeca1f67700c243140caca5c1464736f6c63430008100033",
					"opcodes": "PUSH1 0x80 PUSH1 0x40 MSTORE CALLVALUE DUP1 ISZERO PUSH2 0x10 JUMPI PUSH1 0x0 DUP1 REVERT JUMPDEST POP CALLER PUSH1 0x2 PUSH1 0x0 PUSH2 0x100 EXP DUP2 SLOAD DUP2 PUSH20 0xFFFFFFFFFFFFFFFFFFFFFFFFFFFFFFFFFFFFFFFF MUL NOT AND SWAP1 DUP4 PUSH20 0xFFFFFFFFFFFFFFFFFFFFFFFFFFFFFFFFFFFFFFFF AND MUL OR SWAP1 SSTORE POP PUSH2 0xE22 DUP1 PUSH2 0x61 PUSH1 0x0 CODECOPY PUSH1 0x0 RETURN INVALID PUSH1 0x80 PUSH1 0x40 MSTORE PUSH1 0x4 CALLDATASIZE LT PUSH2 0x70 JUMPI PUSH1 0x0 CALLDATALOAD PUSH1 0xE0 SHR DUP1 PUSH4 0x6B69A592 GT PUSH2 0x4E JUMPI DUP1 PUSH4 0x6B69A592 EQ PUSH2 0xE7 JUMPI DUP1 PUSH4 0xB60D4288 EQ PUSH2 0x112 JUMPI DUP1 PUSH4 0xDBA6335F EQ PUSH2 0x11C JUMPI DUP1 PUSH4 0xDC0D3DFF EQ PUSH2 0x147 JUMPI PUSH2 0x70 JUMP JUMPDEST DUP1 PUSH4 0xD8E6E2C EQ PUSH2 0x75 JUMPI DUP1 PUSH4 0x3CCFD60B EQ PUSH2 0xA0 JUMPI DUP1 PUSH4 0x3E47D6F3 EQ PUSH2 0xAA JUMPI JUMPDEST PUSH1 0x0 DUP1 REVERT JUMPDEST CALLVALUE DUP1 ISZERO PUSH2 0x81 JUMPI PUSH1 0x0 DUP1 REVERT JUMPDEST POP PUSH2 0x8A PUSH2 0x184 JUMP JUMPDEST PUSH1 0x40 MLOAD PUSH2 0x97 SWAP2 SWAP1 PUSH2 0x780 JUMP JUMPDEST PUSH1 0x40 MLOAD DUP1 SWAP2 SUB SWAP1 RETURN JUMPDEST PUSH2 0xA8 PUSH2 0x213 JUMP JUMPDEST STOP JUMPDEST CALLVALUE DUP1 ISZERO PUSH2 0xB6 JUMPI PUSH1 0x0 DUP1 REVERT JUMPDEST POP PUSH2 0xD1 PUSH1 0x4 DUP1 CALLDATASIZE SUB DUP2 ADD SWAP1 PUSH2 0xCC SWAP2 SWAP1 PUSH2 0x7FE JUMP JUMPDEST PUSH2 0x455 JUMP JUMPDEST PUSH1 0x40 MLOAD PUSH2 0xDE SWAP2 SWAP1 PUSH2 0x780 JUMP JUMPDEST PUSH1 0x40 MLOAD DUP1 SWAP2 SUB SWAP1 RETURN JUMPDEST CALLVALUE DUP1 ISZERO PUSH2 0xF3 JUMPI PUSH1 0x0 DUP1 REVERT JUMPDEST POP PUSH2 0xFC PUSH2 0x46D JUMP JUMPDEST PUSH1 0x40 MLOAD PUSH2 0x109 SWAP2 SWAP1 PUSH2 0x780 JUMP JUMPDEST PUSH1 0x40 MLOAD DUP1 SWAP2 SUB SWAP1 RETURN JUMPDEST PUSH2 0x11A PUSH2 0x472 JUMP JUMPDEST STOP JUMPDEST CALLVALUE DUP1 ISZERO PUSH2 0x128 JUMPI PUSH1 0x0 DUP1 REVERT JUMPDEST POP PUSH2 0x131 PUSH2 0x578 JUMP JUMPDEST PUSH1 0x40 MLOAD PUSH2 0x13E SWAP2 SWAP1 PUSH2 0x83A JUMP JUMPDEST PUSH1 0x40 MLOAD DUP1 SWAP2 SUB SWAP1 RETURN JUMPDEST CALLVALUE DUP1 ISZERO PUSH2 0x153 JUMPI PUSH1 0x0 DUP1 REVERT JUMPDEST POP PUSH2 0x16E PUSH1 0x4 DUP1 CALLDATASIZE SUB DUP2 ADD SWAP1 PUSH2 0x169 SWAP2 SWAP1 PUSH2 0x881 JUMP JUMPDEST PUSH2 0x59E JUMP JUMPDEST PUSH1 0x40 MLOAD PUSH2 0x17B SWAP2 SWAP1 PUSH2 0x83A JUMP JUMPDEST PUSH1 0x40 MLOAD DUP1 SWAP2 SUB SWAP1 RETURN JUMPDEST PUSH1 0x0 DUP1 PUSH20 0x8A753747A1FA494EC906CE90E9F37563A8AF630E SWAP1 POP DUP1 PUSH20 0xFFFFFFFFFFFFFFFFFFFFFFFFFFFFFFFFFFFFFFFF AND PUSH4 0x54FD4D50 PUSH1 0x40 MLOAD DUP2 PUSH4 0xFFFFFFFF AND PUSH1 0xE0 SHL DUP2 MSTORE PUSH1 0x4 ADD PUSH1 0x20 PUSH1 0x40 MLOAD DUP1 DUP4 SUB DUP2 DUP7 GAS STATICCALL ISZERO DUP1 ISZERO PUSH2 0x1E9 JUMPI RETURNDATASIZE PUSH1 0x0 DUP1 RETURNDATACOPY RETURNDATASIZE PUSH1 0x0 REVERT JUMPDEST POP POP POP POP PUSH1 0x40 MLOAD RETURNDATASIZE PUSH1 0x1F NOT PUSH1 0x1F DUP3 ADD AND DUP3 ADD DUP1 PUSH1 0x40 MSTORE POP DUP2 ADD SWAP1 PUSH2 0x20D SWAP2 SWAP1 PUSH2 0x8C3 JUMP JUMPDEST SWAP2 POP POP SWAP1 JUMP JUMPDEST PUSH1 0x2 PUSH1 0x0 SWAP1 SLOAD SWAP1 PUSH2 0x100 EXP SWAP1 DIV PUSH20 0xFFFFFFFFFFFFFFFFFFFFFFFFFFFFFFFFFFFFFFFF AND PUSH20 0xFFFFFFFFFFFFFFFFFFFFFFFFFFFFFFFFFFFFFFFF AND CALLER PUSH20 0xFFFFFFFFFFFFFFFFFFFFFFFFFFFFFFFFFFFFFFFF AND EQ PUSH2 0x29A JUMPI PUSH1 0x40 MLOAD PUSH32 0x30CD747100000000000000000000000000000000000000000000000000000000 DUP2 MSTORE PUSH1 0x4 ADD PUSH1 0x40 MLOAD DUP1 SWAP2 SUB SWAP1 REVERT JUMPDEST PUSH1 0x0 JUMPDEST PUSH1 0x1 DUP1 SLOAD SWAP1 POP DUP2 LT ISZERO PUSH2 0x345 JUMPI PUSH1 0x0 PUSH1 0x1 DUP3 DUP2 SLOAD DUP2 LT PUSH2 0x2C0 JUMPI PUSH2 0x2BF PUSH2 0x8F0 JUMP JUMPDEST JUMPDEST SWAP1 PUSH1 0x0 MSTORE PUSH1 0x20 PUSH1 0x0 KECCAK256 ADD PUSH1 0x0 SWAP1 SLOAD SWAP1 PUSH2 0x100 EXP SWAP1 DIV PUSH20 0xFFFFFFFFFFFFFFFFFFFFFFFFFFFFFFFFFFFFFFFF AND SWAP1 POP PUSH1 0x0 DUP1 PUSH1 0x0 DUP4 PUSH20 0xFFFFFFFFFFFFFFFFFFFFFFFFFFFFFFFFFFFFFFFF AND PUSH20 0xFFFFFFFFFFFFFFFFFFFFFFFFFFFFFFFFFFFFFFFF AND DUP2 MSTORE PUSH1 0x20 ADD SWAP1 DUP2 MSTORE PUSH1 0x20 ADD PUSH1 0x0 KECCAK256 DUP2 SWAP1 SSTORE POP POP DUP1 DUP1 PUSH2 0x33D SWAP1 PUSH2 0x94E JUMP JUMPDEST SWAP2 POP POP PUSH2 0x29D JUMP JUMPDEST POP PUSH1 0x0 PUSH8 0xFFFFFFFFFFFFFFFF DUP2 GT ISZERO PUSH2 0x361 JUMPI PUSH2 0x360 PUSH2 0x996 JUMP JUMPDEST JUMPDEST PUSH1 0x40 MLOAD SWAP1 DUP1 DUP3 MSTORE DUP1 PUSH1 0x20 MUL PUSH1 0x20 ADD DUP3 ADD PUSH1 0x40 MSTORE DUP1 ISZERO PUSH2 0x38F JUMPI DUP2 PUSH1 0x20 ADD PUSH1 0x20 DUP3 MUL DUP1 CALLDATASIZE DUP4 CALLDATACOPY DUP1 DUP3 ADD SWAP2 POP POP SWAP1 POP JUMPDEST POP PUSH1 0x1 SWAP1 DUP1 MLOAD SWAP1 PUSH1 0x20 ADD SWAP1 PUSH2 0x3A5 SWAP3 SWAP2 SWAP1 PUSH2 0x6C0 JUMP JUMPDEST POP PUSH1 0x0 CALLER PUSH20 0xFFFFFFFFFFFFFFFFFFFFFFFFFFFFFFFFFFFFFFFF AND SELFBALANCE PUSH1 0x40 MLOAD PUSH2 0x3CC SWAP1 PUSH2 0x9F6 JUMP JUMPDEST PUSH1 0x0 PUSH1 0x40 MLOAD DUP1 DUP4 SUB DUP2 DUP6 DUP8 GAS CALL SWAP3 POP POP POP RETURNDATASIZE DUP1 PUSH1 0x0 DUP2 EQ PUSH2 0x409 JUMPI PUSH1 0x40 MLOAD SWAP2 POP PUSH1 0x1F NOT PUSH1 0x3F RETURNDATASIZE ADD AND DUP3 ADD PUSH1 0x40 MSTORE RETURNDATASIZE DUP3 MSTORE RETURNDATASIZE PUSH1 0x0 PUSH1 0x20 DUP5 ADD RETURNDATACOPY PUSH2 0x40E JUMP JUMPDEST PUSH1 0x60 SWAP2 POP JUMPDEST POP POP SWAP1 POP DUP1 PUSH2 0x452 JUMPI PUSH1 0x40 MLOAD PUSH32 0x8C379A000000000000000000000000000000000000000000000000000000000 DUP2 MSTORE PUSH1 0x4 ADD PUSH2 0x449 SWAP1 PUSH2 0xA68 JUMP JUMPDEST PUSH1 0x40 MLOAD DUP1 SWAP2 SUB SWAP1 REVERT JUMPDEST POP JUMP JUMPDEST PUSH1 0x0 PUSH1 0x20 MSTORE DUP1 PUSH1 0x0 MSTORE PUSH1 0x40 PUSH1 0x0 KECCAK256 PUSH1 0x0 SWAP2 POP SWAP1 POP SLOAD DUP2 JUMP JUMPDEST PUSH1 0x32 DUP2 JUMP JUMPDEST PUSH1 0x32 PUSH2 0x47D CALLVALUE PUSH2 0x5DD JUMP JUMPDEST LT ISZERO PUSH2 0x4BE JUMPI PUSH1 0x40 MLOAD PUSH32 0x8C379A000000000000000000000000000000000000000000000000000000000 DUP2 MSTORE PUSH1 0x4 ADD PUSH2 0x4B5 SWAP1 PUSH2 0xAD4 JUMP JUMPDEST PUSH1 0x40 MLOAD DUP1 SWAP2 SUB SWAP1 REVERT JUMPDEST CALLVALUE PUSH1 0x0 DUP1 CALLER PUSH20 0xFFFFFFFFFFFFFFFFFFFFFFFFFFFFFFFFFFFFFFFF AND PUSH20 0xFFFFFFFFFFFFFFFFFFFFFFFFFFFFFFFFFFFFFFFF AND DUP2 MSTORE PUSH1 0x20 ADD SWAP1 DUP2 MSTORE PUSH1 0x20 ADD PUSH1 0x0 KECCAK256 PUSH1 0x0 DUP3 DUP3 SLOAD PUSH2 0x50C SWAP2 SWAP1 PUSH2 0xAF4 JUMP JUMPDEST SWAP3 POP POP DUP2 SWAP1 SSTORE POP PUSH1 0x1 CALLER SWAP1 DUP1 PUSH1 0x1 DUP2 SLOAD ADD DUP1 DUP3 SSTORE DUP1 SWAP2 POP POP PUSH1 0x1 SWAP1 SUB SWAP1 PUSH1 0x0 MSTORE PUSH1 0x20 PUSH1 0x0 KECCAK256 ADD PUSH1 0x0 SWAP1 SWAP2 SWAP1 SWAP2 SWAP1 SWAP2 PUSH2 0x100 EXP DUP2 SLOAD DUP2 PUSH20 0xFFFFFFFFFFFFFFFFFFFFFFFFFFFFFFFFFFFFFFFF MUL NOT AND SWAP1 DUP4 PUSH20 0xFFFFFFFFFFFFFFFFFFFFFFFFFFFFFFFFFFFFFFFF AND MUL OR SWAP1 SSTORE POP JUMP JUMPDEST PUSH1 0x2 PUSH1 0x0 SWAP1 SLOAD SWAP1 PUSH2 0x100 EXP SWAP1 DIV PUSH20 0xFFFFFFFFFFFFFFFFFFFFFFFFFFFFFFFFFFFFFFFF AND DUP2 JUMP JUMPDEST PUSH1 0x1 DUP2 DUP2 SLOAD DUP2 LT PUSH2 0x5AE JUMPI PUSH1 0x0 DUP1 REVERT JUMPDEST SWAP1 PUSH1 0x0 MSTORE PUSH1 0x20 PUSH1 0x0 KECCAK256 ADD PUSH1 0x0 SWAP2 POP SLOAD SWAP1 PUSH2 0x100 EXP SWAP1 DIV PUSH20 0xFFFFFFFFFFFFFFFFFFFFFFFFFFFFFFFFFFFFFFFF AND DUP2 JUMP JUMPDEST PUSH1 0x0 DUP1 PUSH2 0x5E8 PUSH2 0x617 JUMP JUMPDEST SWAP1 POP PUSH1 0x0 PUSH8 0xDE0B6B3A7640000 DUP5 DUP4 PUSH2 0x601 SWAP2 SWAP1 PUSH2 0xB28 JUMP JUMPDEST PUSH2 0x60B SWAP2 SWAP1 PUSH2 0xBB1 JUMP JUMPDEST SWAP1 POP DUP1 SWAP3 POP POP POP SWAP2 SWAP1 POP JUMP JUMPDEST PUSH1 0x0 DUP1 PUSH20 0x8A753747A1FA494EC906CE90E9F37563A8AF630E SWAP1 POP PUSH1 0x0 DUP2 PUSH20 0xFFFFFFFFFFFFFFFFFFFFFFFFFFFFFFFFFFFFFFFF AND PUSH4 0xFEAF968C PUSH1 0x40 MLOAD DUP2 PUSH4 0xFFFFFFFF AND PUSH1 0xE0 SHL DUP2 MSTORE PUSH1 0x4 ADD PUSH1 0xA0 PUSH1 0x40 MLOAD DUP1 DUP4 SUB DUP2 DUP7 GAS STATICCALL ISZERO DUP1 ISZERO PUSH2 0x67E JUMPI RETURNDATASIZE PUSH1 0x0 DUP1 RETURNDATACOPY RETURNDATASIZE PUSH1 0x0 REVERT JUMPDEST POP POP POP POP PUSH1 0x40 MLOAD RETURNDATASIZE PUSH1 0x1F NOT PUSH1 0x1F DUP3 ADD AND DUP3 ADD DUP1 PUSH1 0x40 MSTORE POP DUP2 ADD SWAP1 PUSH2 0x6A2 SWAP2 SWAP1 PUSH2 0xC5A JUMP JUMPDEST POP POP POP SWAP2 POP POP PUSH5 0x2540BE400 DUP2 PUSH2 0x6B9 SWAP2 SWAP1 PUSH2 0xCD5 JUMP JUMPDEST SWAP3 POP POP POP SWAP1 JUMP JUMPDEST DUP3 DUP1 SLOAD DUP3 DUP3 SSTORE SWAP1 PUSH1 0x0 MSTORE PUSH1 0x20 PUSH1 0x0 KECCAK256 SWAP1 DUP2 ADD SWAP3 DUP3 ISZERO PUSH2 0x739 JUMPI SWAP2 PUSH1 0x20 MUL DUP3 ADD JUMPDEST DUP3 DUP2 GT ISZERO PUSH2 0x738 JUMPI DUP3 MLOAD DUP3 PUSH1 0x0 PUSH2 0x100 EXP DUP2 SLOAD DUP2 PUSH20 0xFFFFFFFFFFFFFFFFFFFFFFFFFFFFFFFFFFFFFFFF MUL NOT AND SWAP1 DUP4 PUSH20 0xFFFFFFFFFFFFFFFFFFFFFFFFFFFFFFFFFFFFFFFF AND MUL OR SWAP1 SSTORE POP SWAP2 PUSH1 0x20 ADD SWAP2 SWAP1 PUSH1 0x1 ADD SWAP1 PUSH2 0x6E0 JUMP JUMPDEST JUMPDEST POP SWAP1 POP PUSH2 0x746 SWAP2 SWAP1 PUSH2 0x74A JUMP JUMPDEST POP SWAP1 JUMP JUMPDEST JUMPDEST DUP1 DUP3 GT ISZERO PUSH2 0x763 JUMPI PUSH1 0x0 DUP2 PUSH1 0x0 SWAP1 SSTORE POP PUSH1 0x1 ADD PUSH2 0x74B JUMP JUMPDEST POP SWAP1 JUMP JUMPDEST PUSH1 0x0 DUP2 SWAP1 POP SWAP2 SWAP1 POP JUMP JUMPDEST PUSH2 0x77A DUP2 PUSH2 0x767 JUMP JUMPDEST DUP3 MSTORE POP POP JUMP JUMPDEST PUSH1 0x0 PUSH1 0x20 DUP3 ADD SWAP1 POP PUSH2 0x795 PUSH1 0x0 DUP4 ADD DUP5 PUSH2 0x771 JUMP JUMPDEST SWAP3 SWAP2 POP POP JUMP JUMPDEST PUSH1 0x0 DUP1 REVERT JUMPDEST PUSH1 0x0 PUSH20 0xFFFFFFFFFFFFFFFFFFFFFFFFFFFFFFFFFFFFFFFF DUP3 AND SWAP1 POP SWAP2 SWAP1 POP JUMP JUMPDEST PUSH1 0x0 PUSH2 0x7CB DUP3 PUSH2 0x7A0 JUMP JUMPDEST SWAP1 POP SWAP2 SWAP1 POP JUMP JUMPDEST PUSH2 0x7DB DUP2 PUSH2 0x7C0 JUMP JUMPDEST DUP2 EQ PUSH2 0x7E6 JUMPI PUSH1 0x0 DUP1 REVERT JUMPDEST POP JUMP JUMPDEST PUSH1 0x0 DUP2 CALLDATALOAD SWAP1 POP PUSH2 0x7F8 DUP2 PUSH2 0x7D2 JUMP JUMPDEST SWAP3 SWAP2 POP POP JUMP JUMPDEST PUSH1 0x0 PUSH1 0x20 DUP3 DUP5 SUB SLT ISZERO PUSH2 0x814 JUMPI PUSH2 0x813 PUSH2 0x79B JUMP JUMPDEST JUMPDEST PUSH1 0x0 PUSH2 0x822 DUP5 DUP3 DUP6 ADD PUSH2 0x7E9 JUMP JUMPDEST SWAP2 POP POP SWAP3 SWAP2 POP POP JUMP JUMPDEST PUSH2 0x834 DUP2 PUSH2 0x7C0 JUMP JUMPDEST DUP3 MSTORE POP POP JUMP JUMPDEST PUSH1 0x0 PUSH1 0x20 DUP3 ADD SWAP1 POP PUSH2 0x84F PUSH1 0x0 DUP4 ADD DUP5 PUSH2 0x82B JUMP JUMPDEST SWAP3 SWAP2 POP POP JUMP JUMPDEST PUSH2 0x85E DUP2 PUSH2 0x767 JUMP JUMPDEST DUP2 EQ PUSH2 0x869 JUMPI PUSH1 0x0 DUP1 REVERT JUMPDEST POP JUMP JUMPDEST PUSH1 0x0 DUP2 CALLDATALOAD SWAP1 POP PUSH2 0x87B DUP2 PUSH2 0x855 JUMP JUMPDEST SWAP3 SWAP2 POP POP JUMP JUMPDEST PUSH1 0x0 PUSH1 0x20 DUP3 DUP5 SUB SLT ISZERO PUSH2 0x897 JUMPI PUSH2 0x896 PUSH2 0x79B JUMP JUMPDEST JUMPDEST PUSH1 0x0 PUSH2 0x8A5 DUP5 DUP3 DUP6 ADD PUSH2 0x86C JUMP JUMPDEST SWAP2 POP POP SWAP3 SWAP2 POP POP JUMP JUMPDEST PUSH1 0x0 DUP2 MLOAD SWAP1 POP PUSH2 0x8BD DUP2 PUSH2 0x855 JUMP JUMPDEST SWAP3 SWAP2 POP POP JUMP JUMPDEST PUSH1 0x0 PUSH1 0x20 DUP3 DUP5 SUB SLT ISZERO PUSH2 0x8D9 JUMPI PUSH2 0x8D8 PUSH2 0x79B JUMP JUMPDEST JUMPDEST PUSH1 0x0 PUSH2 0x8E7 DUP5 DUP3 DUP6 ADD PUSH2 0x8AE JUMP JUMPDEST SWAP2 POP POP SWAP3 SWAP2 POP POP JUMP JUMPDEST PUSH32 0x4E487B7100000000000000000000000000000000000000000000000000000000 PUSH1 0x0 MSTORE PUSH1 0x32 PUSH1 0x4 MSTORE PUSH1 0x24 PUSH1 0x0 REVERT JUMPDEST PUSH32 0x4E487B7100000000000000000000000000000000000000000000000000000000 PUSH1 0x0 MSTORE PUSH1 0x11 PUSH1 0x4 MSTORE PUSH1 0x24 PUSH1 0x0 REVERT JUMPDEST PUSH1 0x0 PUSH2 0x959 DUP3 PUSH2 0x767 JUMP JUMPDEST SWAP2 POP PUSH32 0xFFFFFFFFFFFFFFFFFFFFFFFFFFFFFFFFFFFFFFFFFFFFFFFFFFFFFFFFFFFFFFFF DUP3 SUB PUSH2 0x98B JUMPI PUSH2 0x98A PUSH2 0x91F JUMP JUMPDEST JUMPDEST PUSH1 0x1 DUP3 ADD SWAP1 POP SWAP2 SWAP1 POP JUMP JUMPDEST PUSH32 0x4E487B7100000000000000000000000000000000000000000000000000000000 PUSH1 0x0 MSTORE PUSH1 0x41 PUSH1 0x4 MSTORE PUSH1 0x24 PUSH1 0x0 REVERT JUMPDEST PUSH1 0x0 DUP2 SWAP1 POP SWAP3 SWAP2 POP POP JUMP JUMPDEST POP JUMP JUMPDEST PUSH1 0x0 PUSH2 0x9E0 PUSH1 0x0 DUP4 PUSH2 0x9C5 JUMP JUMPDEST SWAP2 POP PUSH2 0x9EB DUP3 PUSH2 0x9D0 JUMP JUMPDEST PUSH1 0x0 DUP3 ADD SWAP1 POP SWAP2 SWAP1 POP JUMP JUMPDEST PUSH1 0x0 PUSH2 0xA01 DUP3 PUSH2 0x9D3 JUMP JUMPDEST SWAP2 POP DUP2 SWAP1 POP SWAP2 SWAP1 POP JUMP JUMPDEST PUSH1 0x0 DUP3 DUP3 MSTORE PUSH1 0x20 DUP3 ADD SWAP1 POP SWAP3 SWAP2 POP POP JUMP JUMPDEST PUSH32 0x43616C6C206661696C6564000000000000000000000000000000000000000000 PUSH1 0x0 DUP3 ADD MSTORE POP JUMP JUMPDEST PUSH1 0x0 PUSH2 0xA52 PUSH1 0xB DUP4 PUSH2 0xA0B JUMP JUMPDEST SWAP2 POP PUSH2 0xA5D DUP3 PUSH2 0xA1C JUMP JUMPDEST PUSH1 0x20 DUP3 ADD SWAP1 POP SWAP2 SWAP1 POP JUMP JUMPDEST PUSH1 0x0 PUSH1 0x20 DUP3 ADD SWAP1 POP DUP2 DUP2 SUB PUSH1 0x0 DUP4 ADD MSTORE PUSH2 0xA81 DUP2 PUSH2 0xA45 JUMP JUMPDEST SWAP1 POP SWAP2 SWAP1 POP JUMP JUMPDEST PUSH32 0x596F75206E65656420746F207370656E64206D6F726520455448210000000000 PUSH1 0x0 DUP3 ADD MSTORE POP JUMP JUMPDEST PUSH1 0x0 PUSH2 0xABE PUSH1 0x1B DUP4 PUSH2 0xA0B JUMP JUMPDEST SWAP2 POP PUSH2 0xAC9 DUP3 PUSH2 0xA88 JUMP JUMPDEST PUSH1 0x20 DUP3 ADD SWAP1 POP SWAP2 SWAP1 POP JUMP JUMPDEST PUSH1 0x0 PUSH1 0x20 DUP3 ADD SWAP1 POP DUP2 DUP2 SUB PUSH1 0x0 DUP4 ADD MSTORE PUSH2 0xAED DUP2 PUSH2 0xAB1 JUMP JUMPDEST SWAP1 POP SWAP2 SWAP1 POP JUMP JUMPDEST PUSH1 0x0 PUSH2 0xAFF DUP3 PUSH2 0x767 JUMP JUMPDEST SWAP2 POP PUSH2 0xB0A DUP4 PUSH2 0x767 JUMP JUMPDEST SWAP3 POP DUP3 DUP3 ADD SWAP1 POP DUP1 DUP3 GT ISZERO PUSH2 0xB22 JUMPI PUSH2 0xB21 PUSH2 0x91F JUMP JUMPDEST JUMPDEST SWAP3 SWAP2 POP POP JUMP JUMPDEST PUSH1 0x0 PUSH2 0xB33 DUP3 PUSH2 0x767 JUMP JUMPDEST SWAP2 POP PUSH2 0xB3E DUP4 PUSH2 0x767 JUMP JUMPDEST SWAP3 POP DUP2 PUSH32 0xFFFFFFFFFFFFFFFFFFFFFFFFFFFFFFFFFFFFFFFFFFFFFFFFFFFFFFFFFFFFFFFF DIV DUP4 GT DUP3 ISZERO ISZERO AND ISZERO PUSH2 0xB77 JUMPI PUSH2 0xB76 PUSH2 0x91F JUMP JUMPDEST JUMPDEST DUP3 DUP3 MUL SWAP1 POP SWAP3 SWAP2 POP POP JUMP JUMPDEST PUSH32 0x4E487B7100000000000000000000000000000000000000000000000000000000 PUSH1 0x0 MSTORE PUSH1 0x12 PUSH1 0x4 MSTORE PUSH1 0x24 PUSH1 0x0 REVERT JUMPDEST PUSH1 0x0 PUSH2 0xBBC DUP3 PUSH2 0x767 JUMP JUMPDEST SWAP2 POP PUSH2 0xBC7 DUP4 PUSH2 0x767 JUMP JUMPDEST SWAP3 POP DUP3 PUSH2 0xBD7 JUMPI PUSH2 0xBD6 PUSH2 0xB82 JUMP JUMPDEST JUMPDEST DUP3 DUP3 DIV SWAP1 POP SWAP3 SWAP2 POP POP JUMP JUMPDEST PUSH1 0x0 PUSH10 0xFFFFFFFFFFFFFFFFFFFF DUP3 AND SWAP1 POP SWAP2 SWAP1 POP JUMP JUMPDEST PUSH2 0xC01 DUP2 PUSH2 0xBE2 JUMP JUMPDEST DUP2 EQ PUSH2 0xC0C JUMPI PUSH1 0x0 DUP1 REVERT JUMPDEST POP JUMP JUMPDEST PUSH1 0x0 DUP2 MLOAD SWAP1 POP PUSH2 0xC1E DUP2 PUSH2 0xBF8 JUMP JUMPDEST SWAP3 SWAP2 POP POP JUMP JUMPDEST PUSH1 0x0 DUP2 SWAP1 POP SWAP2 SWAP1 POP JUMP JUMPDEST PUSH2 0xC37 DUP2 PUSH2 0xC24 JUMP JUMPDEST DUP2 EQ PUSH2 0xC42 JUMPI PUSH1 0x0 DUP1 REVERT JUMPDEST POP JUMP JUMPDEST PUSH1 0x0 DUP2 MLOAD SWAP1 POP PUSH2 0xC54 DUP2 PUSH2 0xC2E JUMP JUMPDEST SWAP3 SWAP2 POP POP JUMP JUMPDEST PUSH1 0x0 DUP1 PUSH1 0x0 DUP1 PUSH1 0x0 PUSH1 0xA0 DUP7 DUP9 SUB SLT ISZERO PUSH2 0xC76 JUMPI PUSH2 0xC75 PUSH2 0x79B JUMP JUMPDEST JUMPDEST PUSH1 0x0 PUSH2 0xC84 DUP9 DUP3 DUP10 ADD PUSH2 0xC0F JUMP JUMPDEST SWAP6 POP POP PUSH1 0x20 PUSH2 0xC95 DUP9 DUP3 DUP10 ADD PUSH2 0xC45 JUMP JUMPDEST SWAP5 POP POP PUSH1 0x40 PUSH2 0xCA6 DUP9 DUP3 DUP10 ADD PUSH2 0x8AE JUMP JUMPDEST SWAP4 POP POP PUSH1 0x60 PUSH2 0xCB7 DUP9 DUP3 DUP10 ADD PUSH2 0x8AE JUMP JUMPDEST SWAP3 POP POP PUSH1 0x80 PUSH2 0xCC8 DUP9 DUP3 DUP10 ADD PUSH2 0xC0F JUMP JUMPDEST SWAP2 POP POP SWAP3 SWAP6 POP SWAP3 SWAP6 SWAP1 SWAP4 POP JUMP JUMPDEST PUSH1 0x0 PUSH2 0xCE0 DUP3 PUSH2 0xC24 JUMP JUMPDEST SWAP2 POP PUSH2 0xCEB DUP4 PUSH2 0xC24 JUMP JUMPDEST SWAP3 POP DUP3 PUSH32 0x7FFFFFFFFFFFFFFFFFFFFFFFFFFFFFFFFFFFFFFFFFFFFFFFFFFFFFFFFFFFFFFF DIV DUP3 GT PUSH1 0x0 DUP5 SGT PUSH1 0x0 DUP5 SGT AND AND ISZERO PUSH2 0xD2A JUMPI PUSH2 0xD29 PUSH2 0x91F JUMP JUMPDEST JUMPDEST DUP2 PUSH32 0x8000000000000000000000000000000000000000000000000000000000000000 SDIV DUP4 SLT PUSH1 0x0 DUP5 SLT PUSH1 0x0 DUP5 SGT AND AND ISZERO PUSH2 0xD67 JUMPI PUSH2 0xD66 PUSH2 0x91F JUMP JUMPDEST JUMPDEST DUP3 PUSH32 0x8000000000000000000000000000000000000000000000000000000000000000 SDIV DUP3 SLT PUSH1 0x0 DUP5 SGT PUSH1 0x0 DUP5 SLT AND AND ISZERO PUSH2 0xDA4 JUMPI PUSH2 0xDA3 PUSH2 0x91F JUMP JUMPDEST JUMPDEST DUP3 PUSH32 0x7FFFFFFFFFFFFFFFFFFFFFFFFFFFFFFFFFFFFFFFFFFFFFFFFFFFFFFFFFFFFFFF SDIV DUP3 SLT PUSH1 0x0 DUP5 SLT PUSH1 0x0 DUP5 SLT AND AND ISZERO PUSH2 0xDE1 JUMPI PUSH2 0xDE0 PUSH2 0x91F JUMP JUMPDEST JUMPDEST DUP3 DUP3 MUL SWAP1 POP SWAP3 SWAP2 POP POP JUMP INVALID LOG2 PUSH5 0x6970667358 0x22 SLT KECCAK256 PUSH4 0x5F369D39 0x4C SDIV PUSH24 0x67C0F8F657FA34985B86EFECA1F67700C243140CACA5C14 PUSH5 0x736F6C6343 STOP ADDMOD LT STOP CALLER "
				},
				"gasEstimates": {
					"creation": {
						"codeDepositCost": "723600",
						"executionCost": "25026",
						"totalCost": "748626"
					},
					"external": {
						"MINIMUM_USD()": "329",
						"addressToAmountFunded(address)": "2859",
						"fund()": "infinite",
						"funders(uint256)": "5022",
						"getVersion()": "infinite",
						"i_owner()": "2558",
						"withdraw()": "infinite"
					}
				},
				"methodIdentifiers": {
					"MINIMUM_USD()": "6b69a592",
					"addressToAmountFunded(address)": "3e47d6f3",
					"fund()": "b60d4288",
					"funders(uint256)": "dc0d3dff",
					"getVersion()": "0d8e6e2c",
					"i_owner()": "dba6335f",
					"withdraw()": "3ccfd60b"
				}
			},
			"storageLayout": {
				"storage": [
					{
						"astId": 58,
						"contract": "Lesson 4/FundMe.sol:FundMe",
						"label": "addressToAmountFunded",
						"offset": 0,
						"slot": "0",
						"type": "t_mapping(t_address,t_uint256)"
					},
					{
						"astId": 61,
						"contract": "Lesson 4/FundMe.sol:FundMe",
						"label": "funders",
						"offset": 0,
						"slot": "1",
						"type": "t_array(t_address)dyn_storage"
					},
					{
						"astId": 63,
						"contract": "Lesson 4/FundMe.sol:FundMe",
						"label": "i_owner",
						"offset": 0,
						"slot": "2",
						"type": "t_address"
					}
				],
				"types": {
					"t_address": {
						"encoding": "inplace",
						"label": "address",
						"numberOfBytes": "20"
					},
					"t_array(t_address)dyn_storage": {
						"base": "t_address",
						"encoding": "dynamic_array",
						"label": "address[]",
						"numberOfBytes": "32"
					},
					"t_mapping(t_address,t_uint256)": {
						"encoding": "mapping",
						"key": "t_address",
						"label": "mapping(address => uint256)",
						"numberOfBytes": "32",
						"value": "t_uint256"
					},
					"t_uint256": {
						"encoding": "inplace",
						"label": "uint256",
						"numberOfBytes": "32"
					}
				}
			},
			"userdoc": {
				"kind": "user",
				"methods": {},
				"version": 1
			}
		}
	}
}